:10000000E4C200000AC3000008C3000006C30000E9
:1000100004C3000002C3000000C300000C94971842
:10002000FCC20000FAC20000ABC7000082C700009B
:10003000F4C20000F2C20000F0C20000EEC20000F4
:10004000ECC20000EAC200000C946814E6C2000092
:10005000E4C20000E2C200000C9483080C94060D78
:10006000DCC200000C942A0DD8C20000D6C20000E9
:10007000D4C20000D2C200000C94500FCEC20000C7
:10008000CCC20000CAC20000C8C20000C6C2000044
:100090000C94DB22C2C200000C940823BEC20000F4
:1000A0000C944E0DBAC200000C94720D07634236D8
:1000B000B79BD8A71A39685618AEBAAB558C1D3CF9
:1000C000B7CC5763BD6DEDFD753EF6177231BF00BD
:1000D0000000803F08000000BE922449123EABAAF7
:1000E000AA2ABECDCCCC4C3E00000080BEABAAAA52
:1000F000AA3E00000000BF000000803F000000009A
:1001000000084178D3BB4387D1133D190E3CC3BDD2
:100110004282AD2B3E68EC8276BED98FE1A93E4C7F
:1001200080EFFFBE01C4FF7F3F00000000006E6152
:100130006E00696E660000407A10F35A00A0724E9D
:1001400018090010A5D4E80000E87648170000E47C
:100150000B54020000CA9A3B000000E1F5050000C4
:1001600080969800000040420F000000A086010029
:100170000000102700000000E803000000006400F9
:10018000000000000A000000000001000000000064
:100190002C76D888DC674F0823DFC1DFAE59E1B188
:1001A000B796E5E3E453C63AE651997696E8E6C297
:1001B0008426EB898C9B62ED407C6FFCEFBC9C9F9E
:1001C00040F2BAA56FA5F490055A2AF75C936B6CC0
:1001D000F9676DC11BFCE0E40D47FEF520E6B500B4
:1001E000D0ED902E0300943577050080841E080022
:1001F00000204E0A000000C80C333333330F986ED2
:1002000012831141EF8D2114893BE65516CFFEE68E
:10021000DB18D1844B381BF77C1D901DA4BBE42454
:10022000203284725E228100C9F124ECA1E53D27D1
:1002300004002C0101000A0014001E0028003200F6
:1002400038FFD4FE70FEA8FD18FC6F12833A000040
:10025000C0400000F0411901000000000000000053
:100260000046617374000000000000000000000000
:10027000005A005B005D006000640069006F00765A
:10028000007E00870091009C00A800B500C300D24A
:1002900000E200F300050118012C014501680195F9
:1002A00001CC010D025802AD020C036B03C0030127
:1002B000042E0451046A047E048D049C04AB04BA29
:1002C00004C904000000000000000000000000005D
:1002D000000000000000000000000000000000001E
:1002E0000000000000000000000000E0017201209A
:1002F00001E900C000A3008E008000780070006952
:100300000062005B0054004E00480042003C003692
:100310000030002A00000000000000000000000083
:1003200000000000000000000000000000000000CD
:100330000000000000000000000000000040010973
:1003400001D700B40096007D006C0061005A005394
:10035000004D00480043003E00390034002F002AC1
:1003600000250020001B000001010000000000002B
:100370004D656469756D000000000000000000001C
:100380006C006F00720076007B00800087008E009A
:100390009600A000AB00BA00C900DB00EF00050129
:1003A0001D01370152018001B001DE0112023E023F
:1003B00070029F02D302090345037C03AF03D703F6
:1003C000F4030D04210431043E044D045C046B0469
:1003D0007B0400000000000000000000000000009E
:1003E000000000000000000000000000000000000D
:1003F00000000000000000000000FE01AD016B01E4
:100400003E011801FB00E300CE00BD00AF00A200DA
:100410009300850078006C00620058004D00430096
:100420003B0033000000000000000000000000005E
:1004300000000000000000000000000000000000BC
:100440000000000000000000000000004001110159
:10045000E400C500A90094008300780070006700E4
:10046000600058005100490042003A0033002C005F
:10047000250020001C0000010100000000000053C6
:100480006C6F770000000000000000000000007F9B
:1004900000830088008D00920098009F00A700AFA5
:1004A00000BA00C600D800EA0002011B0139015859
:1004B000017B019F01E90134027802BD02E80214C8
:1004C0000331034E0366037E038E039F03AD03BB1C
:1004D00003CA03D903E403F003FE030D041D042E35
:1004E0000400000000000000000000000000000008
:1004F00000000000000000000000000000000000FC
:100500000000000000000000001C02E901B6019399
:10051000017001540138011D010301EF00DB00C52A
:1005200000B0009D008A007C006E005F0051004614
:10053000003C00000000000000000000000000007F
:1005400000000000000000000000000000000000AB
:10055000000000000000000000000040011901F24E
:1005600000D700BD00AC009B00900086007C0073AB
:100570000069005F0055004B00410037002E002548
:100580000021001E000001010000000000002425E1
:10059000732A253032580D0A004C4B384558312CFF
:1005A00025302E30662C39393939392C25302E300A
:1005B000662C25302E30662C3939392C0062656165
:1005C0006E320000FE219323062211241FBECFEFBE
:1005D000CDBFDFE2DEBF10E2A0E0B0E2E2E6F0E68F
:1005E00002C005900D92A433B107D9F723E2A4E32A
:1005F000B0E201C01D92A636B207E1F712E0C4EEE8
:10060000D2E004C02197FE010E94BB2EC23ED1075A
:10061000C9F70E9446230C945D2CF2CCAAECB1E001
:1006200092E09C93E82FF0E084911C920895CF9281
:10063000DF92EF92FF92CF93C82F80E2EFDF80939B
:100640000C0281E2EBDF80930D0281E080930002D7
:100650001092010283E08093020240910E2050919B
:100660000F20609110207091112022E030E0822F45
:100670006A017B01022E04C0F694E794D794C794D4
:100680000A94D2F791E8C91694E8D9069EE1E906E2
:10069000F10430F02F5F3F4F2A30310541F78AE0F7
:1006A0008250837080930402809102028F7C8C2B95
:1006B00080930202CF91FF90EF90DF90CF9008954A
:1006C000FC01862F90E0603A60F090819C7F916001
:1006D00090839181880F880F880F9778892B818369
:1006E000089520812C7F2083218133E0880F991F7A
:1006F0003A95E1F72778822BF2CFFC019081906840
:1007000090830895FC01848195810895823009F4D5
:1007100071C038F5882309F43FC0813009F457C00F
:100720008091122090911320A0911420B091152057
:100730008093062090930720A0930820B09309206F
:1007400080930A2090930B20A0930C20B0930D204F
:1007500080930E2090930F20A0931020B09311202F
:100760000895833009F459C08430D1F68BEC80931E
:100770005200809150008860809350008091510019
:1007800083FFFCCF63E080E490E00E949F0D80E057
:1007900094E2A4EFB0E012C0809150008460809396
:1007A00050008091510082FFFCCF62E080E490E035
:1007B0000E949F0D80E090E8A0E0B0E080931220BE
:1007C00090931320A0931420B0931520A9CF80916B
:1007D00050008160809350008091510080FFFCCFD9
:1007E00060E080E490E00E949F0D80E894E8AEE134
:1007F000B0E0E4CF809150008062809350008091FF
:10080000510085FFFCCF65E080E490E00E949F0DE1
:1008100080E092E1AAE7B0E0D1CF80915000826001
:10082000809350008091510081FFFCCF61E080E413
:1008300090E00E949F0D80E098E4A8EEB1E0BECF6A
:10084000CF93DF93C82FD62F609141006378682B38
:1008500081E490E00E949F0DC43309F407C1B0F514
:10086000C43109F4ACC0C8F4C43009F45FC0CC3062
:1008700009F469C0C1118DC080911220909113209C
:10088000A0911420B091152080930620909307200A
:10089000A0930820B09309207CC0C43209F4B9C0E9
:1008A000CC3209F4D3C0CC3109F073C0809112204E
:1008B00090911320A0911420B091152024E0B695BA
:1008C000A795979587952A95D1F7DECFC43509F47A
:1008D00086C0B0F4C43409F4D9C0CC3409F443C0A0
:1008E000CC3309F056C08091122090911320A09132
:1008F0001420B0911520892F9A2FAB2FBB27C4CF7E
:10090000C43609F479C0CC3609F493C0CC3509F06B
:1009100040C060911220709113208091142090911A
:1009200015202CE030E040E050E029C080911220FA
:1009300090911320A0911420B0911520B695A79501
:1009400097958795A1CF8091122090911320A09127
:100950001420B091152042E0B695A79597958795FC
:100960004A95D1F791CF6091122070911320809118
:1009700014209091152026E030E040E050E00E94E5
:100980007D2E20930620309307204093082050931B
:100990000920609141006C7F6D2B81E490E00E9402
:1009A0009F0DD13009F493C008F480C0D23009F40F
:1009B000ABC0D33009F4B8C0DF91CF9108958091D6
:1009C000122090911320A0911420B091152033E0B3
:1009D000B695A795979587953A95D1F755CF60919C
:1009E00012207091132080911420909115202AE0FC
:1009F00030E040E050E0C3CF6091122070911320AE
:100A0000809114209091152028E130E040E050E0E2
:100A1000B6CF8091122090911320A0911420B09114
:100A20001520C5E0B695A79597958795CA95D1F7F6
:100A30002BCF6091122070911320809114209091FF
:100A4000152020E330E040E050E099CF8091122063
:100A500090911320A0911420B0911520F6E0B69546
:100A6000A79597958795FA95D1F70ECF809112208B
:100A700090911320A0911420B0911520E7E0B69535
:100A8000A79597958795EA95D1F7FECE809112208C
:100A900090911320A0911420B091152069E0B69593
:100AA000A795979587956A95D1F7EECE8091062008
:100AB00090910720A0910820B091092080930A20EE
:100AC00090930B20A0930C20B0930D2014C0809124
:100AD000062090910720A0910820B09109208093D2
:100AE0000A2090930B20A0930C20B0930D20B69574
:100AF000A7959795879580930E2090930F20A093AC
:100B00001020B093112058CF80910620909107209B
:100B1000A0910820B091092042E0B695A79597953D
:100B200087954A95D1F7CACF8091062090910720EA
:100B3000A0910820B0910920AC01BD017695679580
:100B40005795479540930A2050930B2060930C20B3
:100B500070930D2032E0B695A795979587953A95B5
:100B6000D1F7C9CF60E06CCE21E030E001C0220FA8
:100B70006A95EAF7FC01442311F025830895268342
:100B80000895FC01208581E090E0062E02C0880FC8
:100B9000991F0A94E2F730E08223932302C09595CF
:100BA00087956A95E2F708954096FC01E60FF11DDE
:100BB0008081482B408308954096FC01E60FF11D8B
:100BC0008081413019F48064808308958F7BFCCF4D
:100BD00021E030E001C0220F6A95EAF7FC014423CE
:100BE00011F02183089522830895FC01442319F014
:100BF000413061F00895828521E030E001C0220F8C
:100C00006A95EAF72095282322870895828521E0B6
:100C100030E001C0220F6A95EAF7822B8287818536
:100C2000816081870895FC017096E60FF11D308187
:100C3000232B2083DACFFC0166870895FC01108600
:100C40001186128613860895AF92BF92CF92EF92CB
:100C5000FF921F93CF93DF93EC01FB01142F1A82B5
:100C600068837983158288EF818387E0838381E0BD
:100C7000848386E090E07CD75C016E2D7DD7AC86C6
:100C8000BD8686E090E074D77C016C2D75D7EE862A
:100C9000FF861E821F82E12FF0E0EE0FFF1FEC5C4B
:100CA000FF4DC083D183DF91CF911F91FF90EF90D3
:100CB000CF90BF90AF900895FC018685978584C73B
:100CC000FC018485958567C7FC0145836483848125
:100CD000A081B181880F16968C9381E0878316825C
:100CE000848595858CC70F931F93CF93DF93EC0179
:100CF000E881F981148117FF0CC08D818F3F89F540
:100D000087818D838D81E881F981882389F182E053
:100D1000838316FF21C08E859F8514FD31C06CD75B
:100D2000882339F0088119818E859F8534D7F80191
:100D300087838E859F8560D781110EC08E859F85A4
:100D40005ED78D81E881F9818823B1F081E08383CA
:100D50008C81880F81608683DF91CF911F910F91E5
:100D6000089567818C859D852FD78D818150C9CF4E
:100D700087E083831F82CDCF83E083831F82ECCF04
:100D800021E02E83E881F98123E0238338D7F6CF51
:100D9000DC0117962C911797211105C0ED91FC915C
:100DA00084818370089583E00895CF93DF93EC01ED
:100DB000CE01EEDF8130E1F7DF91CF910895CF933F
:100DC000DF93EC0181E08F83E881F981828581FFE7
:100DD00006C0E885F985309711F0CE010995E881C4
:100DE000F98183E08187DF91CF910895CF93DF93DD
:100DF000EC013D818C859D85FC012281E881F98192
:100E0000321748F46485E0D6E881F98183E0818770
:100E1000DF91CF91089586E081871F82F9CFCF932C
:100E2000DF93EC01673061F48B8181110DC0E8859F
:100E3000F985309729F0CE0109958C859D85DFD6FF
:100E40001F82DF91CF910895EA85FB853097C1F32A
:100E5000CE0109958E859F85F2CFFC01A081B181DD
:100E60001A969C911A9790641A969C9367E0CF010A
:100E7000D6CF0F931F93CF93DF93EC01E881F981D5
:100E8000828584FD17C08E859F85B6D6088119811D
:100E9000882371F08E859F857ED6F8018487E8814E
:100EA000F98183E08187DF91CF911F910F910895A0
:100EB0008FEFF3CF82E0818767E0CE01DF91CF91A2
:100EC0001F910F91ACCFDC01ED91FC91328521E0B7
:100ED000432F427031FF20E0FC0123834111C9CF31
:100EE00085CFCF93DF93EC01E881F981828582FF82
:100EF0000CC08C859D8583D68E859F8580D681E0AC
:100F00008E831F82DF91CF91089583FDF2CF86FFFC
:100F10000AC080FF04C0CE01DF91CF9150CFCE0137
:100F2000DF91CF919ACF87FFECCFCE01DF91CF91A8
:100F3000CACF1F920F920FB60F9211242F933F9397
:100F40004F935F936F937F938F939F93AF93BF93D1
:100F5000EF93FF938091342090913520C4DEFF9170
:100F6000EF91BF91AF919F918F917F916F915F9121
:100F70004F913F912F910F900FBE0F901F9018959A
:100F80001F920F920FB60F9211242F933F934F93FE
:100F90005F936F937F938F939F93AF93BF93EF93E1
:100FA000FF9380913420909135209BDFFF91EF914A
:100FB000BF91AF919F918F917F916F915F914F9171
:100FC0003F912F910F900FBE0F901F901895909109
:100FD000010490FDFCCF813089F050F08230F1F0B7
:100FE000833049F180910004682B609300040895D8
:100FF00080914300816080934300F4CF82E280932C
:101000005200809150008860809350008091510080
:1010100083FFFCCF809143008360EDCF809150002F
:101020008460809350008091510082FFFCCF8091BA
:1010300043008560E0CF82E08093520080915000B1
:101040008860809350008091510083FFFCCF809195
:1010500043008B60D0CF80FF0AC090910304916061
:10106000909303049091020492609093020481FF94
:101070000AC080910304826080930304809102047B
:10108000886080930204089580FF05C09091020457
:101090009D7F9093020481FF05C080910204877FA9
:1010A00080930204089580910804909109040895A2
:1010B00041E0FC0161858781908556CD0F931F9398
:1010C000CF93DF93EC01E881F98163818A819B8171
:1010D0007BD58C819D8190D5882361F00881198111
:1010E0008C819D8158D5F8018383DF91CF911F9129
:1010F0000F910895CE01DCDF1E82E881F9818181A4
:101100008E7F8183F2CF1F920F920FB60F92112420
:101110002F933F934F935F936F937F938F939F93FF
:10112000AF93BF93EF93FF93809138209091392034
:10113000C5DFFF91EF91BF91AF919F918F917F910B
:101140006F915F914F913F912F910F900FBE0F9034
:101150001F901895E8E4F0E081E080838895108284
:101160000895E8E4F0E085E0808388951082089592
:10117000CF92DF92EF92FF92CF93DF93EC016C83DB
:101180007D834E874150473008F060C0E42FF0E087
:10119000E453F74F0C94BB2ED308140917091A090E
:1011A0001D092009230981E090E08E839F832E8111
:1011B0003F8150E040E060910E2070910F208091BF
:1011C0001020909111200E947D2ECA01B9010E9429
:1011D00007286B017C01AC019B0160E078E18CE7A2
:1011E00097E40E946A27688779878A879B8720E02F
:1011F00030E04AE754E4C701B6010E945E299B0132
:10120000AC0160E070E080E89FE30E946A270E94E2
:10121000D7276C877D8781E08F87DF91CF91FF9003
:10122000EF90DF90CF90089582E090E0BECF84E011
:1012300090E0BBCF88E090E0B8CF80E490E0B5CFFD
:1012400080E091E0B2CF80E094E0AFCF1E821F82B9
:10125000AECFFB01BA01DC01ED93FC93119712961E
:101260001D921C921397422F83CFFB01BA01DC0120
:101270001D921C9211971296ED93FC931397422F97
:1012800077CFFC01A081B18196859F70109711F0F6
:101290009C9308950280F381E02D90830895DC01F2
:1012A000ED91FC911197309711F0108208951296EC
:1012B000ED91FC91FACFDC01ED91FC911197309703
:1012C00029F08181887F682B618308951296ED91C2
:1012D000FC91F7CFDC01ED91FC911197309721F053
:1012E0008481682B648308951296ED91FC91F8CF68
:1012F000DC01ED91FC9111976095309721F084818C
:101300006823648308951296ED91FC91F8CFDC0177
:10131000ED91FC911197309719F066A377A308958A
:101320001296ED91FC91F9CFDC01ED91FC911197B2
:10133000962F9170862F8470309789F0992311F041
:1013400040AF51AF882311F042AF53AF64FF02C0EA
:1013500044AF55AF66FF12C046AF57AF089599230B
:1013600031F01296ED91FC91139740AF51AF882365
:1013700029F01296ED91FC9142AF53AF0895CF93AF
:10138000DF93DC01ED91FC911197309709F445C092
:10139000EF012696379660FF06C080811F969C91CC
:1013A0001F97892B808361FF0AC080811F962C9133
:1013B0001F9794E0299F90011124822B808362FF64
:1013C0000AC080811F962C911F9790E1299F900160
:1013D0001124822B808363FF0AC080811F962C9189
:1013E0001F9790E4299F90011124822B808364FF32
:1013F00006C088811F969C911F97892B888365FF63
:1014000009C088811F962C9194E0299F9001112496
:10141000822B8883DF91CF9108951296ED91FC91F4
:101420001397B6CFDC01ED91FC911197309719F02D
:1014300081E0848708951296ED91FC91F9CFDC014B
:10144000ED91FC911197309719F080A191A1089529
:101450001296ED91FC91F9CFDC01ED91FC91119781
:10146000309719F060A371A308951296ED91FC9145
:10147000F9CFCF93C82F60E070E080E89FE31C169F
:101480004CF4C1509B01AC010E940227C111F9CF5D
:10149000CF910895CC23E1F3CF5F20E030E040E02E
:1014A0005FE30E945E29F6CF08950895CF93DF93FE
:1014B000EC01A881B98111968C9111978C7129F555
:1014C0008A819B81ED8921E02E0F2D8BE80FF92F6A
:1014D000F11D8C9180839D89888D981301C01D8A90
:1014E0008F898F5F8F8B988D891301C01F8A8E81A2
:1014F0009F81009751F03F892A85321730F041E0F3
:101500002985211140E068852FDBE889F98930972A
:1015100021F0CE01DF91CF910994DF91CF91089511
:10152000CF93DF93EC018B859C85009759F48B8DCD
:10153000811113C0EA89FB89309761F0CE01DF91F8
:10154000CF9109946D851DDB91E02E85211190E0EE
:101550008913EDCFDF91CF9108958B8D81508B8FC3
:101560008C819D81E98D21E02E0F298FE80FF92FC5
:10157000F11DA881B98180818C93998D8C8D9813F0
:10158000D9CF198ED7CFFC01978981E0911180E0E6
:101590000895FC01613051F170F1623051F1A08188
:1015A000B18112968C911297837C12968C9312972C
:1015B000808D882361F012968C911297278590E197
:1015C000299F90011124822B12968C931297848D5F
:1015D000882359F012968C911297278594E0299FC1
:1015E00090011124822B12968C93089583E08787B3
:1015F000D6CF6787D4CF81E0FACF2F923F924F9218
:101600005F926F927F928F929F92AF92BF92CF9292
:10161000DF92EF92FF920F931F93CF93DF93CDB79B
:10162000DEB7A297CDBFDEBF1C012B01CD8ADE8ABB
:10163000EF8AF88EA98E8A8EDC0150961D921C923C
:10164000519752961D921C92539720910E203091E3
:101650000F204091102050911120298B3A8B4B8BF9
:101660005C8BDA01C90124E0B695A795979587951B
:101670002A95D1F7A701960182179307A407B5070A
:1016800008F420C130E13E8380E090E0A0E8BFE3B1
:101690008A839B83AC83BD8319821F86188A17E0D7
:1016A0003E81232F30E050E040E02B8F3C8F4D8F68
:1016B0005E8F69897A898B899C890E9407284B01F2
:1016C0005C01812FD6DE6B877C878D879E876B8D33
:1016D0007C8D8D8D9E8D0E9409286B017C016D890A
:1016E0007E898F89988D0E9407286F8378878987E4
:1016F0009A8717FDEAC02B853C854D855E85C7011D
:10170000B6010E945E296B017C012F8138854985D5
:101710005A850E945E299B01AC01C501B4010E945B
:101720006A2720E030E040E85FE30E9401270E9442
:10173000D7273B016F5F7F4F90E080E00E94072832
:10174000A70196010E945E299B01AC01C501B4016D
:101750000E946A270E94D7270E9407282F81388578
:1017600049855A850E946A279B01AC0160E070E0C0
:1017700080E89FE30E9401276B017C0120E030E0BC
:10178000A9010E945A2918160CF4DDC0C701B60140
:1017900090582A813B814C815D810E94662787FF9A
:1017A00019C04FEF64164FE07406A0F420E030E05B
:1017B000A901C701B6010E945A2918160CF4C6C027
:1017C000D701C601B0588A839B83AC83BD8319833C
:1017D0006F86788A1150183F09F06BCFD1014D9276
:1017E0005C922F85F201268389818295807F3889DA
:1017F000832B8783138212824E81483019F48381B0
:1018000084608383E98DD1015896EC935897EE2339
:1018100049F058968C9190E0ADD1D10112968D93FC
:101820009C9313972A8DF101248F222341F0848DFC
:1018300090E0A0D1D10114968D939C931597F1015E
:10184000128E168A158A178A118E138E0190F081D6
:10185000E02D83E08483D10158968C91882319F080
:10186000838180618383D1015C968C91882319F0F8
:10187000838188608383F101168217821386148620
:10188000178660E0C10185DEE02FF0E0EE0FFF1F5C
:10189000E85CFF4D20823182A296CDBFDEBFDF9192
:1018A000CF911F910F91FF90EF90DF90CF90BF905D
:1018B000AF909F908F907F906F905F904F903F90F0
:1018C0002F90089548E04E83DFCE2F8138854985DB
:1018D0005A85C701B6010E945E299B01AC01C50172
:1018E000B4010E946A2720E030E040E85FE30E94F4
:1018F00001276F8F78A389A39AA32B853C854D85FB
:101900005E8560E070E080E89FE30E946A279B01AB
:10191000AC016F8D78A189A19AA10E945E290E94D5
:10192000D7273B0190E080E00E9407282B853C856B
:101930004D855E850E945E2920E030E040E85FE34F
:101940000E940227FDCEC701B60123CFCA82DB82E7
:10195000EC82FD823CCFFC01838D811109C0A08106
:10196000B18111968C91119785FF02C06C930895F7
:10197000F894838D8F5F838F84819581A28D21E080
:101980002A0F228FA80FB92FB11D6C937894928DD6
:10199000848D981301C0128E0895CF93FC0187891E
:1019A0008823E9F382819381A68921E02A0F268B7F
:1019B000A80FB92FB11DCC919689808D981301C0C5
:1019C000168AF89487898150878B789486819781CD
:1019D000009739F037892285321718F441856085E0
:1019E000C3D88C2FCF910895E82FF0E0EE0FFF1FA2
:1019F000E85CFF4D8081918159CDE82FF0E0EE0F3A
:101A0000FF1FE85CFF4D808191818ACD1F920F926C
:101A10000FB60F9211242F933F934F935F936F93C1
:101A20007F938F939F93AF93BF93EF93FF9380E048
:101A3000DBDFFF91EF91BF91AF919F918F917F91EC
:101A40006F915F914F913F912F910F900FBE0F902B
:101A50001F9018951F920F920FB60F9211242F937B
:101A60003F934F935F936F937F938F939F93AF9326
:101A7000BF93EF93FF9380E0C0DFFF91EF91BF91A1
:101A8000AF919F918F917F916F915F914F913F9116
:101A90002F910F900FBE0F901F9018951F920F92CD
:101AA0000FB60F9211242F933F934F935F936F9331
:101AB0007F938F939F93AF93BF93EF93FF9381E0B7
:101AC00093DFFF91EF91BF91AF919F918F917F91A4
:101AD0006F915F914F913F912F910F900FBE0F909B
:101AE0001F9018951F920F920FB60F9211242F93EB
:101AF0003F934F935F936F937F938F939F93AF9396
:101B0000BF93EF93FF9381E078DFFF91EF91BF9157
:101B1000AF919F918F917F916F915F914F913F9185
:101B20002F910F900FBE0F901F901895682F636034
:101B300080E890E004C061E080E890E000C00F938E
:101B40001BBEFC0108ED04BF60830F910895E0EA1D
:101B5000F0E08281876082837894089598E0282F4E
:101B60002427869520FD862746959150C1F7089534
:101B70000C943C2B0C943C2BCF93DF93EC016A83A9
:101B8000862F90E0F7DF888399831D821B821C8259
:101B9000DF91CF910895FC018581882399F085819B
:101BA00081508583A38180819181A80FB92FB11DB8
:101BB0008C9193819F5F938323819281291718F0E1
:101BC0001382089580E00895FC0195818281981721
:101BD00018F485818F5F8583A48180819181A80F0E
:101BE000B92FB11D6C9384818F5F8483948182812E
:101BF000981708F014820895FC0185810895FC016E
:101C0000158213821482089580E00E941703E0E099
:101C1000F2E081818061818363EA80E292E00C944A
:101C200060030F931F938091532090915420892B30
:101C3000B9F40E94B51800913F20109140202091E6
:101C4000412030914220601771078207930740F0CE
:101C5000809116208130D9F130F0823009F453C0E0
:101C60001F910F91089580913D2090913E206AE050
:101C700070E00E94562E6093432070934420072EFC
:101C8000000C880B990B0E94092820E030E847E3FC
:101C900054E40E94662787FF02C086E00BD181E0F2
:101CA000809316200E94B518605A75418F4F9F4F40
:101CB00060933F2070934020809341209093422076
:101CC00010923D2010923E2010923C20C9CF85E01A
:101CD000809371008091000281608093000241E056
:101CE00064E080E096E00E94E80541E064E080E086
:101CF00096E00E94B40580E292E00E947D0382E0BB
:101D000080931620ADCF40E064E080E096E00E9432
:101D1000E80580E292E00E94820320913D2030910C
:101D20003E20820F931F80933D2090933E20809110
:101D300000028E7F8093000287E080937100809183
:101D40003C208F5F80933C208A3018F01092162040
:101D500087CF81E0D5CF40E062E080E096E00E944E
:101D6000E80548E162E080E096E00E94D40541E0A9
:101D700061E080E096E00E94E80541E060E080E0FC
:101D800096E00E94E80541E061E080E096E00E9474
:101D9000B40541E060E080E096E00C94B40562E0B8
:101DA00080E096E00E94C10590915920811121C0E8
:101DB000911112C00E94B51860935C2070935D2051
:101DC00080935E2090935F2010925A2010925B20A7
:101DD00081E08093592008950E94B51820915C20DD
:101DE00030915D20621B730B60935A2070935B20CF
:101DF00008959150923010F41092592010921820AA
:101E000008958091592081110AC020915A20309163
:101E10005B202B50310981E0293E314008F080E001
:101E2000089580915920813049F420915A203091B1
:101E30005B202B503109293E314008F080E00895A5
:101E400080915920811108C081E020915A20309161
:101E50005B20253F314008F480E0089580915920AF
:101E6000813039F420915A2030915B20253F314058
:101E700008F480E0089580915920813039F4209150
:101E80005A2030915B20213D374008F480E00895CE
:101E900010925A2010925B2082E08093592008957E
:101EA0001F920F920FB60F9211240F900FBE0F903A
:101EB0001F901895809355208830B0F4E82FF0E0FB
:101EC000EC59F04F0C94BB2E6C0F8E0F880F780FCF
:101ED0008B0F8B0F850F7E0F109253201092542082
:101EE0001092D1211092D22181E080931B2008957D
:101EF00041E060E080E096E00E94B40584E690E076
:101F00008093532090935420EFCF40E061E0F2CFD4
:101F100088E790E0F5CF88EC90E0F2CF80915620F2
:101F200028E2829FC00111244496EACF809191203B
:101F30008F5F853068F48093912083E080935820F0
:101F4000809191208093562081E0B4DF0C94021898
:101F500081E0F1CF8091532090915420009709F4B3
:101F600062C0E0915520E150E73008F04BC0F0E04E
:101F7000E454F04F0C94BB2E6D102010C30F5D1075
:101F80006610FA0F141030E020E08431910510F44F
:101F90002CE231E0AC01485251094431510510F4B2
:101FA00028E532E080559109449740F484E893E0B5
:101FB0008093D1219093D22140E007C02093D1217A
:101FC0003093D22141E0232BB9F761E080E096E025
:101FD0000E94B4058091532090915420019791F470
:101FE00081E08093882041E061E080E096E00E94FB
:101FF000B40508C028EE33E02093D1213093D221DC
:10200000019789F3809153209091542001978093F8
:10201000532090935420892B31F410921B2010925E
:10202000D1211092D221089522E330E02093D121D2
:102030003093D221019731F781E080938820E2CF5D
:102040009C012451310924313105B0F030E020E009
:10205000AC014C5351094431510510F428E532E0EC
:1020600084569109449758F48CE291E08093D121F1
:102070009093D22140E00AC024E833E0E9CF2093D6
:10208000D1213093D22141E0232BA1F760E080E001
:1020900096E00E94B40580915320909154200197BE
:1020A00009F0B0CF809196208F5F8093562083E017
:1020B0008093582081E0FEDEA5CF24EF31E0281B7D
:1020C000390B2093D1213093D2219CCF80579E4F42
:1020D0008093D1219093D22195CF68E270E00E9445
:1020E000562E459768F41092D1211092D22141E0EA
:1020F00061E080E096E00E94B40541E060E075CFC9
:102100008CEB92E08093D1219093D2218091582042
:1021100080FF06C040E061E080E096E00E94B405E8
:102120008091582081FF6ECF40E0E8CFE091C82138
:10213000F0E0EE0FFF1FE956FF4D60817181072E21
:10214000000C880B990B0E94092820E030E048EC35
:1021500052E40E946A276093892070938A208093BA
:102160008B2090938C20E091C921F0E0EE0FFF1FAF
:10217000EF55FF4D60817181072E000C880B990B84
:102180000E94092820E030E048EC52E40E946A27CF
:1021900060938D2070938E2080938F209093902059
:1021A000089580914D208F5F80934D20E0914C20C9
:1021B000E83008F04DC0F0E0E052FF4E0C94BB2E2A
:1021C00026110411111119111E11F110E810F3104C
:1021D00040E060E080E096E00E94B40540E061E00D
:1021E0000FC041E0F6CF64E10E944A2E9A3070F5AC
:1021F00040E061E080E096E00E94B40540E060E0ED
:1022000080E096E00C94B40564E10E944A2E40E020
:102210009A30A8F461E080E096E00E94B40541E0C5
:10222000EECF64E10E944A2E40E09A3098F341E0FC
:10223000F1CF64E10E944A2E9A3040F440E060E021
:1022400080E096E00E94B40541E0C9CF41E0F7CFBD
:1022500008958BD7609348207093492080934A203B
:1022600090934B206091E1217091E2218091E321D4
:102270009091E4210E94D2276093462070934720DA
:102280000895CF92DF92EF92FF92809193209091E8
:102290009420892B09F46EC06091462070914720EC
:1022A000C090E121D090E221E090E321F090E42180
:1022B000072E000C880B990B0E940928A701960194
:1022C0000E94012720E030E0A9010E945A29609174
:1022D0004620709147201816B4F5072E000C880B85
:1022E000990B0E940928A70196010E94012720E06E
:1022F00030E040E85FE30E945A291816B4F135D760
:10230000C0904820D0904920E0904A20F0904B2087
:102310009B01AC012C193D094E095F0969017A0145
:102320002091932030919420A8EEB3E00E94C12E1A
:102330006C157D058E059F05E8F483E0FF90EF9016
:10234000DF90CF90B7CD072E000C880B990B0E9421
:102350000928A70196010E94012720E030E040E80B
:102360005FEB0E94662787FFCACFFF90EF90DF9058
:10237000CF906FCFFF90EF90DF90CF9008950F93A5
:102380001F9380911720882321F082E093DD109223
:102390001720E0DD8091532090915420892B61F02B
:1023A000E4D660934F2070935020809351209093F7
:1023B00052201F910F910895F2DCF3DE8091572097
:1023C00081115DC010921B205CDF8091572082300C
:1023D00009F449C108F05CC0882309F4AAC081301F
:1023E00041F71FDD882319F084E080934C2036DD0F
:1023F000882319F085E080934C2003DD8823A1F029
:1024000082E08093572081E080934E2041DD84E07C
:1024100080934C204FDDA9D660934F2070935020BD
:1024200080935120909352200BDD8823A1F083E00C
:102430008093572081E080934E202ADD85E08093B1
:102440004C2038DD92D660934F20709350208093BB
:1024500051209093522089D600914F201091502006
:102460002091512030915220601B710B820B930BF5
:10247000693B7B408105910508F0ECC09ACF81E073
:1024800080931B201092D1211092D221E2DE9DCFA9
:10249000843009F4A7C008F432C1853009F089CF2F
:1024A00087E080934C20ADDC8823A9F0F1DC5DD679
:1024B00060934F207093502080935120909352202E
:1024C000809196208F5F833008F064C180939620BE
:1024D00081E080934E2080914E20882361F01092FD
:1024E0004E20809196208F5F8093562083E08093CA
:1024F000582081E0DFDC39D600914F201091502028
:102500002091512030915220601B710B820B930B54
:10251000613777418105910508F44BCF80915920AF
:10252000811147CF1092572010924C201F910F918C
:10253000A8C5A1DC8823A9F080911820882309F47C
:1025400041C013D660934F20709350208093512048
:102550009093522085E08093572081E080934E2015
:1025600097DC4FDC8823A1F080914520882369F116
:1025700081E080934C20F9D560934F2070935020D8
:10258000809351209093522084E08093572080DCE8
:10259000ECD500914F201091502020915120309186
:1025A0005220601B710B820B930B6D3271408105C1
:1025B000910508F4FECE809159208111FACE109237
:1025C0004520F7CE83E076DCCBCF81E080934520B9
:1025D000CCD560934F2070935020809351209093DE
:1025E0005220D5CF0EDC882361F052DC9FDC31DE37
:1025F000BCD560934F2070935020809351209093CE
:1026000052202CDC882319F086E080934C2018DCC3
:10261000882369F0AAD560934F207093502080934F
:1026200051209093522081E08093572031DC9DD53A
:1026300000914F2010915020209151203091522034
:10264000601B710B820B930B6137774181059105FC
:1026500008F4AFCE809159208111ABCE1092572053
:1026600010924C20A6CE84E080934C20CADB8823B5
:10267000A9F00EDC7AD560934F20709350208093A0
:102680005120909352208091C8218F5F8530A0F512
:102690008093C8214BDD81E080934E2080914E20B5
:1026A000882361F010924E208091C8218F5F809323
:1026B000562082E08093582081E0FCDB56D50091C3
:1026C0004F20109150202091512030915220601BBA
:1026D000710B820B930B613777418105910508F4EB
:1026E00068CE80915920811164CE109257201092AB
:1026F0004C201F910F9195C41092C821CBCF85E03B
:1027000080934C207EDB8823A9F0C2DB2ED560931A
:102710004F207093502080935120909352208091AD
:10272000C9218F5F853098F58093C921FFDC81E056
:1027300080934E2080914E20882359F010924E2095
:102740008091C9218F5F8093562081E0809358202B
:10275000B1DB0BD500914F201091502020915120DA
:1027600030915220601B710B820B930B61377741C4
:102770008105910508F41DCE80915920811119CE53
:102780001092572010924C201F910F9162C410920A
:10279000C921CCCF109296209BCE8091912082307F
:1027A000D9F028F4882341F0813051F00895833026
:1027B000E9F0843029F1089580EF8093420608956E
:1027C00061E488E790E20E946A0980E6809342060D
:1027D00080E980934106089561E188E790E20E94D4
:1027E0006A0980EA8093420680E5F3CF64E488E7D3
:1027F00090E20E946A0980E58093420680EAE9CF70
:1028000064E188E790E20E946A0980E980934206C9
:1028100080E6DFCFCF93DF93EC01AC01569547956F
:1028200065E588E790E20E949409BE0188E790E29E
:102830000E948709B2DF88E790E20E941F0AC8174A
:10284000D90740F470E060E088E790E2DF91CF9133
:102850000C942C0ADF91CF910895009789F410927F
:1028600066201092672080916120811130C088E736
:1028700090E20E944F0965E588E790E20C947809A0
:102880009C0150E040E066E574EF80E090E00E943B
:102890009F2E2093662030936720809161208111C4
:1028A00005C08091662090916720B4DF8091B820A8
:1028B000882349F080916020811105C080916620B5
:1028C00090916720A7DF88E790E20C944109089572
:1028D0001F920F920FB60F9211242F933F934F9395
:1028E0005F936F937F938F939F93AF93BF93EF9378
:1028F000FF9388E690E20E94120A80916020811185
:102900002EC065E588E790E20E94780980916220F8
:1029100090916320892B39F488E690E20E944F0958
:10292000109261200BC0609162207091632088E654
:1029300090E20E94870981E080936020FF91EF91EF
:10294000BF91AF919F918F917F916F915F914F91C7
:102950003F912F910F900FBE0F901F90189580916F
:10296000662090916720892B31F0809166209091AC
:10297000672050DF12DF8091642090916520892BC1
:1029800059F2609164207091652088E690E20E947F
:10299000870910926020D2CFCF93DF93EB0120976D
:1029A00011F0009759F41092642010926520109253
:1029B000622010926320DF91CF910895BC0190E0D6
:1029C00080E00E94072820E030E04AE752E40E94BD
:1029D0005E290E94D7276093642070936520BE0112
:1029E00090E080E00E94072820E030E04AE752E4CF
:1029F0000E945E290E94D727609362207093632013
:102A000080916120811119C061E070E088E690E258
:102A10000E942C0A8091662090916720FBDE6091D5
:102A200064207091652088E690E20E94870988E61C
:102A300090E20E9441091092602081E08093612021
:102A4000BACF41E066E080E496E00E94DC0541E018
:102A500067E080E496E00E94DC0525E040E456E073
:102A600060E078E088E790E20E94290925E040E4F0
:102A700056E060E478E088E690E20E94350963E081
:102A800088E790E20E945B098CE08093020865E58C
:102A900088E790E20E946A0960E188E690E20C947F
:102AA000BF094F925F926F927F928F929F92AF92E7
:102AB000BF92CF92DF92EF92FF920F931F93CF932B
:102AC000DF938A019B01AC010E9402276B017C010C
:102AD0000E9482282B013C0120E030E040EA51E4D2
:102AE0000E9402274B015C0120E030E04CE152E4FF
:102AF0000E945A2918160CF46BC0A3019201C70159
:102B0000B6010E9401276B017C01C501B4010E943E
:102B1000D727C62F20E030E0A901C501B4010E94EB
:102B2000662787FF04C0C0E0C12CD12C760120E0CD
:102B300030E040E251E4C701B6010E945E290E94E4
:102B40000D2A6B017C014C2F50E0440F551FF801FA
:102B5000E40FF51FC081D181628173816C1B7D0BF5
:102B6000072E000C880B990B0E9409284B015C0171
:102B700020E030E040E251E4C701B6010E946A273C
:102B80009B01AC01C501B4010E945E296B017C016F
:102B9000BE01DD0F880B990B0E9409289B01AC0137
:102BA000C701B6010E9402270E94D227CB01DF9104
:102BB000CF911F910F91FF90EF90DF90CF90BF903A
:102BC000AF909F908F907F906F905F904F900895FF
:102BD000C7E2C12CD12C90E8E92E9FE3F92E9ACFC1
:102BE000CF92DF92EF92FF920F931F93CF93DF93D9
:102BF00080911B208823D9F088E690E20E944F093B
:102C0000109264201092652010926220109263202E
:102C1000109261208091D1219091D221DF91CF91AA
:102C20001F910F91FF90EF90DF90CF9016CE809183
:102C300092208823A1F08091192090911A2000976A
:102C400071F001978093192090931A20DF91CF9112
:102C50001F910F91FF90EF90DF90CF900895C0905B
:102C6000D521D090D621E090D721F090D821209185
:102C7000892030918A2040918B2050918C20C7016F
:102C8000B6010E945A2987FF0EC020918D203091F5
:102C90008E2040918F2050919020C701B6010E9454
:102CA00066271816FCF042ED50E2C701B601F9DEC6
:102CB0008C0146E751E2C701B601F3DEEC0144E2C4
:102CC00051E2C701B601EDDE7C01C801C6DDB701E6
:102CD000CE01DF91CF911F910F91FF90EF90DF9088
:102CE000CF905ACEF12CE12CD0E0C0E010E000E013
:102CF000ECCF8F929F92AF92BF92CF92DF92EF92E2
:102D0000FF920F931F93CF93DF93CDB7DEB7A097BA
:102D1000CDBFDEBF0EE513E09EE5A92E93E0B92EF0
:102D20002EE8822E25E0922E78010132110518F04E
:102D300080E2E82EF12C6501C01AD10AA701B40186
:102D4000601B710BCE0101960E94372D8091CF013F
:102D500087FDFCCFA701B601CE01019669D2A895E7
:102D6000005211090E3F8FEF1807F1F68091CF0145
:102D700087FDFCCF61E089E790E00E949F0DA0965F
:102D8000CDBFDEBFDF91CF911F910F91FF90EF90EC
:102D9000DF90CF90BF90AF909F908F900895CF928B
:102DA000DF92EF92FF928091CF0187FDFCCF41E34C
:102DB00050E060E070E081E990E20E94EF2F8091A6
:102DC00091208F3F09F495DF8091912081508430CC
:102DD00018F084E08093912080919220823010F04E
:102DE00010929220809193209091942081319E4066
:102DF00030F08CE291E08093932090939420809126
:102E000095208B3010F01092952080919620833081
:102E100010F010929620E1E9F0E230E020E04BEF74
:102E20008681978184529A4F893B9B4010F026837C
:102E300037838089918984529A4F893B9B4038F02F
:102E40004203C001439F900D1124808B918B3296D9
:102E5000265F3F4F2233310519F7C090AB20D09049
:102E6000AC20E090AD20F090AE2020E030E0A90151
:102E7000C701B6010E94662787FD0AC020E030E046
:102E800040E251E4C701B6010E945A29181664F4C1
:102E90008FE692E1A3E8BAE38093AB209093AC2055
:102EA000A093AD20B093AE20C090AF20D090B020C2
:102EB000E090B120F090B22020E030E0A901C701FD
:102EC000B6010E94662787FD0AC020E030E040E29C
:102ED00051E4C701B6010E945A29181664F480E033
:102EE00090E0A0ECB0E48093AF209093B020A0934A
:102EF000B120B093B220C090B320D090B420E09025
:102F0000B520F090B62020E030E0A901C701B6015D
:102F10000E94662787FD0AC020E030E048EC52E4BA
:102F2000C701B6010E945A29181664F480E090E0A7
:102F3000A0EFB1E48093B3209093B420A093B52088
:102F4000B093B6208091B7208C50873218F089E179
:102F50008093B720209196208FE091E0289FB001C8
:102F6000299F700D11246F5C7F4F4FE051E082EC80
:102F700090E20E94EF2FE2ECF0E224E131E284E6FD
:102F800090E040895189413D574010F0808B918BF2
:102F9000DF01AE59BF4F4D915C911197413D5740B4
:102FA00010F08D939C93DF01AC54BF4F4D915C9119
:102FB0001197413D574010F08D939C9332962E17F8
:102FC0003F07F9F68091C821863018F081E08093A0
:102FD000C8218091C921863018F081E08093C921F1
:102FE0008091CA21823018F081E08093CA219ED856
:102FF0008091CC0182608093CC01FF90EF90DF90B4
:10300000CF9008958091CF0187FDFCCF60919120F2
:1030100080E090E0C1D08091CC0182608093CC01AF
:1030200008958091CF0187FDFCCF409196202FE03D
:1030300031E0429FC001439F900D11246091C8214F
:10304000895C9E4FA9D08091CC0182608093CC0195
:1030500008958091CF0187FDFCCF409196202FE00D
:1030600031E0429FC001439F900D11246091C9211E
:10307000885C9E4F91D08091CC0182608093CC017E
:1030800008958091CF0187FDFCCF6091962085E067
:1030900090E082D0209196208FE091E0289FB001AF
:1030A000299F700D11246F5C7F4F4FE051E082EC3F
:1030B00090E20E94EF2FE2ECF0E284E690E02089BB
:1030C0003189213D374010F0808B918BDF01AE5963
:1030D000BF4F2D913C911197213D374010F08D93BA
:1030E0009C93DF01AC54BF4F2D913C911197213D32
:1030F000374010F08D939C93329621E2E431F20731
:10310000F1F68091C821863018F081E08093C821C3
:103110008091C921863018F081E08093C921809187
:10312000CA21823018F081E08093CA2108951F924D
:103130000F920FB60F9211248F939F938091D321FA
:103140009091D42101968093D3219093D4219F9183
:103150008F910F900FBE0F901F90189561E080E047
:103160000E94E70781E00C942B080F931F930E94A5
:1031700053088C016091D3217091D42190E080E0BC
:10318000CB017727662730E020E0602B712B822B64
:10319000932B1F910F9108950F931F93CF93DF935C
:1031A0001F92CDB7DEB78C0169838091CF0187FD77
:1031B000FCCFC8010E94F22F9091CF0197FDFCCF68
:1031C0009981981739F041E050E0B801CE0101969D
:1031D0000E94FE2F0F90DF91CF911F910F910895C4
:1031E0000F931F93CF93DF9300D0CDB7DEB78C0141
:1031F00069837A838091CF0187FDFCCFC8010E944B
:10320000FA2F2091CF0127FDFCCF29813A81281781
:10321000390739F042E050E0B801CE0101960E9432
:10322000FE2F0F900F90DF91CF911F910F91089576
:10323000EF92FF920F931F93CF93DF938C01EB01DB
:103240007C01E40EF51E0E151F0539F0F8016191A1
:103250008F01CE01A1DF2196F6CFDF91CF911F9193
:103260000F91FF90EF9008954F925F926F927F922F
:103270008F929F92AF92BF92CF92DF92EF92FF9286
:10328000CF93DF9300D000D0CDB7DEB769837A83C8
:103290008B839C832091F1213091F2214091F32185
:1032A0005091F4216091AB207091AC208091AD20C1
:1032B0009091AE200E9402276B017C012091AF20EB
:1032C0003091B0204091B1205091B2200E9402274D
:1032D0009B01AC01C701B6010E946A274B015C014A
:1032E0008092ED219092EE21A092EF21B092F021F8
:1032F0004090E9215090EA216090EB217090EC2100
:10330000A301920169817A818B819C810E940127AE
:10331000A50194010E945E29A30192010E94022747
:103320002B013C014092E9215092EA216092EB216D
:103330007092EC21A501940160E070E080E89FE3C9
:103340000E940127A70196010E945E296093F12146
:103350007093F2218093F3219093F421C301B20181
:103360002496CDBFDEBFDF91CF91FF90EF90DF902D
:10337000CF90BF90AF909F908F907F906F905F9015
:103380004F9008958091B3209091B420A091B520E2
:10339000B091B6208093F1219093F221A093F32174
:1033A000B093F42108952F923F924F925F926F92C3
:1033B0007F928F929F92AF92BF92CF92DF92EF92C5
:1033C000FF920F931F93CF93DF93C0904E23D09023
:1033D0004F23E0905023F0905123C092E521D092EA
:1033E000E621E092E721F092E821A7019601C701CA
:1033F000B6010E942D2A8111B3C0C701B60134DF86
:103400006B017C01C092D921D092DA21E092DB21BC
:10341000F092DC21AC019B010E942D2A8111A0C0F9
:1034200060914A2370914B2380914C2390914D23BE
:103430000E9409286093DD217093DE218093DF21B3
:103440009093E021409120205091212060912220F2
:10345000709123209701860185E393E2F0D32B013D
:103460003C014092E1215092E2216092E32170926E
:10347000E4212090F521312CC091B720D0E0C1018A
:103480008C0F9D1FBE010E946A2E8C01000F111F20
:10349000000F111FF801EA50FE4D20813181428159
:1034A0005381C301B2010E9401276B017C0184E6B4
:1034B00090E0BE010E946A2E072E000C880B990B2B
:1034C0000E9409289B01AC01C701B6010E945E2938
:1034D0006B017C01C092D521D092D621E092D721F8
:1034E000F092D82120E030E0A9010E945A29181654
:1034F00024F0F7FAF094F7F8F09480901C20909064
:103500001D20A0901E20B0901F2020E030E0A901D7
:10351000C501B4010E945A29181624F0B7FAB094D4
:10352000B7F8B094A5019401C701B6010E946627BF
:1035300087FF08C01092D5211092D6211092D72172
:103540001092D821F801EA50FE4D408251826282E9
:103550007382C1010196BE010E946A2E8093F521FB
:10356000DF91CF911F910F91FF90EF90DF90CF905F
:10357000BF90AF909F908F907F906F905F904F9093
:103580003F902F9008951F93CF93DF93EC018A898A
:103590009B890E945C0642E06C898A899B890E9413
:1035A00064068A899B890E94D5068A899B890E9424
:1035B0006006182F8A899B890E946006912FDF91EF
:1035C000CF911F9108950F931F93CF93DF93EC0139
:1035D0008A899B890E945C0643E06C898A899B8961
:1035E0000E9464068A899B890E94D5068A899B89E4
:1035F0000E946006182F8A899B890E946006082F06
:103600008A899B890E946006682F702F812F90E025
:10361000DF91CF911F910F910895CF93DF93EC012C
:1036200062EAB1DF8883998364EACE01ACDF8A83E2
:103630009B8366EACE01A7DF8C839D8368EACE0177
:10364000A2DF8E839F836AEACE019DDF88879987F8
:103650006CEACE0198DF8A879B87DF91CF9108952E
:10366000CF93DF93EC018A899B890E945C0640E03E
:103670006C898A899B890E9464068A899B89DF916B
:10368000CF910C94D5066EE1EBCFCF93DF93EC0195
:103690006A8B7B8B4C8B88E08C871D86CE01F3DF99
:1036A0002FE788E391E0215080409040E1F700C08F
:1036B0000000CE01DF91CF91B0CFFC016485606442
:1036C000CFCFFC0165856065CBCFCF93DF93EC0155
:1036D00060E079DF69A37AA38BA39CA3DF91CF91EC
:1036E0000895CF93DF93EC0160E06DDF6115710504
:1036F0008105910521F06D8F7E8F8F8F98A3DF91CB
:10370000CF9108958F929F92AF92BF92CF92DF9206
:10371000EF92FF920F93CF93DF93EC014D8D5E8D6F
:103720006F8D78A1411551056105710509F44BC0F4
:1037300088859985B0E0A0E0BA2FA92F982F882717
:103740009A01AB01281B390B4A0B5B0B2E873F8775
:10375000488B598B6A857B8590E080E00E942A2FF8
:10376000D22EE32EF42EB52FF62FE72FB82EC92E2A
:10377000A0E00E94E32F84F42150310940485F4FBC
:103780006F4F7F4F8F4F9F4FD22EE32EF42EB52FCA
:10379000F62FE72FB82EC92E2D2D3E2D4F2D5B2F46
:1037A0006F2F7E2F8B2D9C2D07E10E94A82F4901A2
:1037B0005A0180ED880E87E0981EA11CB11C8D8AED
:1037C0009E8AAF8AB88EDF91CF910F91FF90EF90D4
:1037D000DF90CF90BF90AF909F908F9008952F92E1
:1037E0003F924F925F926F927F928F929F92AF9291
:1037F000BF92CF92DF92EF92FF920F931F93CF93DE
:10380000DF93CDB7DEB7AE97CDBFDEBF1C01DC01C5
:1038100091962D913D914D915C91949729873A878E
:103820004B875C87232B242B252B09F4F2C11E9692
:103830004D905D906D907C90519716966D917C9116
:1038400090E080E0A30192010E942A2F122F3D8771
:103850004983B52FF62FE72FF82E092FA0E00E94FD
:10386000E32F5CF4AFE70E94CE2F122F3D874983F0
:10387000B52FF62FE72FF82E092F212F3D854981EF
:103880005B2F6F2F7E2F8F2D902F07E00E94A82F88
:1038900049014D875983B62FA72F898B9A8BF10148
:1038A000A280B380950140E050E060E070E080E0ED
:1038B00090E000E10E948F2F59016A017B018C0189
:1038C00094014D8559816B2F7A2F89899A890E949D
:1038D000C52F298B3A8B4B8B5C8B6D8B7E8B8F8BA3
:1038E000988F6481758190E080E0A30192010E942D
:1038F0002A2F122F3D874983B52FF62FE72FF82E59
:10390000092FA0E00E94E32F84F421503F4F4F4F36
:103910005F4F6F4F7F4F8F4F9F4F122F3D874983D0
:10392000B52FF62FE72FF82E092F212F3D8549813E
:103930005B2F6F2F7E2F8F2D902F08E00E94A82FD6
:1039400049014D875983B62FA72F898F9A8FF1018F
:10395000A080B180D12CC12C9501A60160E070E05F
:1039600080E090E00FE00E948F2F59016A017B01F7
:103970008C0194014D8559816B2F7A2F898D9A8DF9
:103980000E94C52F298F3A8F4B8F5C8F6D8F7E8F52
:103990008F8F98A3258936894789508D2D873E873B
:1039A0004F87588B203D3740410551050CF0D7C05B
:1039B000C301B201A30192010E942A2F0FE10E94CC
:1039C000AA2F29833A834B835C836D837E838F8305
:1039D00098876D857E858F859889605D77408109A0
:1039E00091099B01AC010E943B2E25E030E040E0B4
:1039F00050E00E942A2FF22E132F4AA759A7B62F64
:103A0000A72FF82FE92F01E00E94AA2F29A33AA39C
:103A10004BA35CA36DA37EA38FA398A72F2D312F5B
:103A20004AA559A56B2F7A2F8F2F9E2F02E00E9457
:103A3000AA2F29A73AA74A016EA77DA78BA79CA703
:103A40002D853E854F85588924328AEF38078FEFC0
:103A5000480758070CF03FC0CA01B90164527A4FB9
:103A60008F4F9F4F9B01AC010E943B2E2B013C01CD
:103A700027E030E040E050E00E942A2FA9A0BAA041
:103A8000CBA0DCA0EDA0FEA00FA118A50E94C52F21
:103A900029A33AA34BA35CA36DA37EA38FA398A7EE
:103AA000C301B2012BE030E040E050E00E942A2F39
:103AB00001E00E94AA2FA9A4BAA46401EEA4FDA467
:103AC0000BA51CA50E94C52F29A73AA74A016EA7DE
:103AD0007DA78BA79CA78D859E85AF85B8892981F9
:103AE0003A814B815C81821B930BA40BB50BF101D6
:103AF000858B968BA78BB08F29893A894B895C89F6
:103B00006D897E898F89988DA9A0BAA0CBA0DCA0F1
:103B1000EDA0FEA00FA118A50E94DA2F298B3A8BE9
:103B20004B8B5C8B6D8B7E8B8F8B988F298D3A8D19
:103B30004B8D5C8D6D8D7E8D8F8D98A1A9A4BAA4BF
:103B40006401EEA4FDA40BA51CA50E94DA2F298F09
:103B50003A8F4B8F5C8F6D8F7E8F8F8F98A34984A8
:103B60005A846B847C84770C4408542C3201A98CD1
:103B7000BA8CCB8CDC8CED8CFE8C0F8D18A129853A
:103B80003A854B855C85642D742D842D942D0E947F
:103B9000DA2E122F39874983B52FF62FE72FF82E0B
:103BA000092FA0E00E94E32F84F421503109404EF8
:103BB0005F4F6F4F7F4F8F4F9F4F122F3987498332
:103BC000B52FF62FE72FF82E092F212F39854981A0
:103BD0005B2F6F2F7E2F8F2D902F05E10E94A82F36
:103BE000A988BA88CB88DC88ED88FE880F89188D73
:103BF0000E94DA2F0E94032820E030E040E058E3E2
:103C00000E945E29D10159966D937D938D939C936B
:103C10005C97AE96CDBFDEBFDF91CF911F910F9124
:103C2000FF90EF90DF90CF90BF90AF909F908F90DC
:103C30007F906F905F904F903F902F900895CF921C
:103C4000DF92EF92FF920F931F936A017B01C901EC
:103C5000B801A70196010E946A272EEA3CED42E4D2
:103C60005EE30E94C1299B01AC0160E070E080E846
:103C70009FE30E94012720E03AE24DE257E40E94D0
:103C80005E291F910F91FF90EF90DF90CF900895E4
:103C9000682F88EF92E20E94AB0C90E080E00895DC
:103CA0008F92AF92CF92DF92EF92FF920F9380911B
:103CB0002420909125208093622390936323809108
:103CC0005A23882379F141E067E080E696E00E947C
:103CD000E80541E067E080E696E00E94B4058DE4E7
:103CE0008093740080E4882E90E8A92EC12C22ECE9
:103CF000D22EEE24E394F12C01E023E040E656E0DE
:103D000060EC79E088EF92E20E94FD0A60E088EFC3
:103D100092E20F91FF90EF90DF90CF90AF908F9055
:103D20000C94C90A0F91FF90EF90DF90CF90AF9065
:103D30008F900895EF92FF920F931F93CF93DF938D
:103D4000C82F062FE42E152F6AEA88EF92E20E9410
:103D5000AB0CD1E0D00F6D2F88EF92E20E94AB0C3C
:103D60004D2F65ED80E00E94AE0DD82F6C2F88EFAF
:103D700092E20E94AB0C4C2F65ED8D2F0E94AE0D90
:103D8000F82ECE2DD12F0C0F1D2F111DC017D107CE
:103D900071F0699188EF92E20E94AB0CFE013197BD
:103DA000408165ED8F2D0E94AE0DF82EEFCF6F2D67
:103DB00088EF92E2DF91CF911F910F91FF90EF90EA
:103DC0000C94AB0CCF93DF93CDB7DEB76097CDBF2C
:103DD000DEBF8091CB228983813108F052C0E82F69
:103DE000F0E0EB50F14E0C94BB2E061F151F201F68
:103DF000231F261F291F291F291F291F291F331F82
:103E0000331F331F331F331F3B1F3E1F80919120F1
:103E10008A83AE014F5F5F4F62E083E08BDF609685
:103E2000CDBFDEBFDF91CF91089590919320809117
:103E300094209A838B83AE014F5F5F4F63E0EDCF99
:103E400080919620E5CF80919220E2CF8091B8209A
:103E5000DFCF8550E82FF0E0EE0FFF1FE956FF4D52
:103E600090818181E6CF8A50E82FF0E0EE0FFF1FAE
:103E7000EF55FF4DF5CF8091C821CACF8091C92160
:103E8000C7CF843860F2ECE7E80FE93230F4F0E0B5
:103E9000EE0FFF1FEE52FF4DE3CFE23540F48D5A97
:103EA000E82FF0E0EE0FFF1FEC5DFE4DD9CFEB37B2
:103EB00009F4B5CF865DE82FF0E0EE0FFF1FEA585A
:103EC000FE4DCECF8091CB22813108F0A3C0E82FE8
:103ED000F0E0E159F04E6091CC220C94BB2E801F93
:103EE0008A1F981FA71FB01FBE1FBE1FBE1FBE1F69
:103EF000BE1FD21FD21FD21FD21FD21FE61FF81F14
:103F0000609391208091CF0187FDFCCF80E090E00D
:103F100043D918C07091CD22609393207093942060
:103F20008091CF0187FDFCCF82E090E059D90AC093
:103F3000609396208091CF0187FDFCCF85E090E0D3
:103F40002BD99FD850E040E060E084E0F3CE60934E
:103F500092208091CF0187FDFCCF81E090E0D8CF07
:103F600081E0611101C080E08093B8209091CF0181
:103F700097FDFCCF682F87E290E0CACF8550709103
:103F8000CD2290E0FC01EE0FFF1FE956FF4D60834C
:103F900071832091CF0127FDFCCF880F991F8A5F85
:103FA0009F4FC4CF8A507091CD2290E0FC01EE0F5C
:103FB000FF1FEF55FF4D608371832091CF0127FDD7
:103FC000FCCF880F991F805F9F4FB0CF6093C821AF
:103FD0008091CF0187FDFCCF409196202FE031E00A
:103FE000429FC001439F900D1124895C9E4F90CF4A
:103FF0006093C9218091CF0187FDFCCF409196202D
:104000002FE031E0429FC001439F900D1124885C56
:104010009E4F7ECF843808F466C02CE7280F2932E3
:1040200010F56091CC227091CD2230E0F901EE0FB5
:10403000FF1FEE52FF4D608371838091CF0187FD9A
:10404000FCCFE09196204FE051E0E49FC001E59F56
:10405000900D1124285F3F4F220F331F820F931FB3
:104060008F5C9F4F63CF2235F0F48D5A6091CC2244
:104070007091CD22282F30E0F901EE0FFF1FEC5D8B
:10408000FE4D608371838091CF0187FDFCCFE0916D
:1040900096204FE051E0E49FC001E59F900D112470
:1040A0002F5C3F4FD9CF2B37F1F0865D6091CC224A
:1040B0007091CD22282F30E0F901EE0FFF1FEA5852
:1040C000FE4D608371838091CF0187FDFCCFE0912D
:1040D00096204FE051E0E49FC001E59F900D112430
:1040E000265A3F4FB9CF08951F93CF93DF93CDB793
:1040F000DEB76097CDBFDEBF1091CA228091C22289
:10410000811102C011110CC0A8950E94D110143069
:1041100009F445C060F4113099F1A8F01330D9F1D9
:104120006096CDBFDEBFDF91CF911F91089516300D
:1041300009F43DC0C8F11E3F99F761E089E790E0BE
:104140000E949F0DEDCF81E08093C22285E193E232
:104150000E944F0990E080E00E942D1410921B20D5
:1041600084E080934C206DEB75E0CE0101960E94B7
:10417000402DAE014F5F5F4F66E080E0DBDDD0CFCA
:1041800084E080934C2050E040E060E081E0D2DDAC
:104190000E942911C5CF10934C2014DEC1CF83E0BB
:1041A00080934C208FDEBCCF0E947916B9CF83E07C
:1041B00080934C209091CB228091CC229F3F59F448
:1041C0008F3749F490E080E00E942D1450E040E0E9
:1041D00060E086E0D3CF692F782F072E000C880B84
:1041E000990B17D720E030E048EC52E473D6609387
:1041F000D5217093D6218093D7219093D821109206
:104200001B200E94F015E2CF0F931F93CF93C82F6E
:104210000E94B5180091C6221091C7222091C82291
:104220003091C922601B710B820B930B693C7105A5
:104230008105910510F01092DA220E94B518609362
:10424000C6227093C7228093C8229093C92280917E
:10425000DA22813079F040F0823011F18330C1F1FF
:10426000CF911F910F91089581E0CA3AC9F78093C9
:10427000DA22F6CF8FEF8C0F803118F01092DA220D
:10428000EFCF82E08093DA22C093C4221092C5223D
:104290004C2F65ED80E00E94AE0D8093C322E0CFED
:1042A0004C2F65ED8091C3220E94AE0D8093C322F6
:1042B0008091C522E82FF0E0E653FD4DC0838F5F6B
:1042C0008093C5229091C4228913CACF83E0CFCFB7
:1042D0008091C3228C13D2CF07DFD0CFFC0180E0C6
:1042E0009191992311F08927FBCF08950F931F9384
:1042F000CF93DF93CDB7DEB7C355D109CDBFDEBFB6
:1043000080915A23882309F470C088EF92E20E94BA
:10431000C30A811106C088EF92E20E94CD0C74DFBF
:10432000F4CF0E94B5180091BE221091BF222091B7
:10433000C0223091C122061717072807390708F055
:1043400054C08091C222811150C08091E0218F938E
:104350008091DF218F938091DE218F938091DD21E9
:104360008F9320E030E048EC52E46091D5217091C9
:10437000D6218091D7219091D821A0D79F938F9358
:104380007F936F938091DC218F938091DB218F93BA
:104390008091DA218F938091D9218F9389E995E0DB
:1043A0009F938F938E010F5F1F4F1F930F930E9458
:1043B000BD2DC80193DF1F928F931F930F938EE83B
:1043C00095E09F938F930E94992D0E94B5186E5C83
:1043D0007F4F8F4F9F4F6093BE227093BF22809379
:1043E000C0229093C122CDBFDEBFCD5ADF4FCDBFDB
:1043F000DEBFDF91CF911F910F91089588EF92E278
:104400000E94540A8BED92E20C94540A8BED92E2D6
:104410000E94550A88EF92E20C94550AE0E7F0E01A
:1044200083E8808387E081838CE183838DE58483C7
:10443000E0ECF1E0848582608487E0E0F6E0838947
:104440008760838B0895E0E7F0E087E8808387E06A
:1044500081838FE58383848341E061E080EE97E090
:104460000E94E80540E061E080EE97E00E94B4051C
:1044700085E193E20E944F0988E790E20E944F098C
:1044800088E690E20E944F0940E064E080E096E018
:104490000E94E80541E061E080E096E00E94B405FA
:1044A00041E060E080E096E00E94B405E0ECF1E0DD
:1044B0008485826084870895CF92EF920F931F9333
:1044C00064E080E696E00E94C10591E0813009F049
:1044D00090E090935A2382E00E94860384E00E9439
:1044E000B20580E20E94960D0E94CF1697DF0E94CF
:1044F000A70D60E180E696E00E941B066FE080E475
:1045000096E00E941B06CCDB41E061E080EE97E084
:104510000E94E80541E061E080EE97E00E94B4056A
:104520002FEF80E792E0215080409040E1F700C0FB
:10453000000088E0C82E98E0E92E00E412E42FE0A5
:1045400030E040E060E874E085E293E20E942406F7
:104550000E94AE180E94040E0E94AB0E0E9421150C
:104560000E94C21947E765E273E285E393E28DD8C2
:1045700025E040E656E060E479E085E193E20E94C0
:10458000350961E772E085E193E20E94870949E31A
:1045900050E061E085E193E20E94940961E185E1E8
:1045A00093E20E94BF0985E193E21F910F91EF9082
:1045B000CF900C9441091F920F920FB60F921124C5
:1045C0002F933F934F935F936F937F938F939F931B
:1045D000AF93BF93EF93FF9385E193E20E94120A9A
:1045E000A89585E393E271D885E393E26AD8FF91B9
:1045F000EF91BF91AF919F918F917F916F915F915B
:104600004F913F912F910F900FBE0F901F901895D3
:104610001F920F920FB60F9211242F933F934F9337
:104620005F936F937F938F939F93AF93BF93EF931A
:10463000FF9385E393E255D885E393E23ED885E383
:1046400093E260D885E393E2CAD880915B238531F9
:10465000C8F00E94D3190E94F0150E94BF110E9459
:10466000110EFF91EF91BF91AF919F918F917F912B
:104670006F915F914F913F912F910F900FBE0F90CF
:104680001F9018958F5F80935B23E5CF15DFDFEFD9
:1046900080918820882369F1D6DE81E00E94440859
:1046A0000E949B0D22E041E062E080E096E00E94E3
:1046B00013060E94B108D0930C0640E062E080E04F
:1046C00096E00E94F505C4E662E080E096E00E9474
:1046D000C1058111DDCF87E59BE10197F1F700C0AE
:1046E0000000C15089F761E089E790E00E949F0DCA
:1046F000CFCFC0915A2364E080E696E00E94C105C6
:1047000091E0813009F090E09C1729F061E089E7A1
:1047100090E00E949F0D80915B23853108F0E6DDDB
:104720000E94AA08B5CF85E293E20C941E06A0E190
:10473000B0E0EDE9F3E20C945E2F7C011B016A010D
:10474000FC0116821782838181FF34C39E012F5F93
:104750003F4F3901F7019381F10193FD859193FF5B
:1047600081911F01882309F421C3853239F493FD17
:10477000859193FF81911F01853239F4B70190E053
:104780000E945D2D56016501E5CF10E0512C912C62
:10479000FFE1F915D8F08B3279F038F4803279F0F6
:1047A0008332A1F4F92DF0612EC08D3261F0803397
:1047B00069F4292D21602DC0392D3260932E892D69
:1047C0008460982E2AC0E92DE86015C097FC2DC0A2
:1047D00020ED280F2A3088F496FE06C03AE0139F99
:1047E000200D1124122F19C08AE0589E200D11248B
:1047F000522EE92DE0629E2E10C08E3231F496FCCE
:10480000D5C2F92DF0649F2E08C08C3621F4292DD5
:104810002068922E02C0883641F4F10193FD859103
:1048200093FF81911F018111B3CF9BEB980F9330C0
:1048300020F4992D9061805E07C09BE9980F93301A
:1048400008F062C1992D9F7E96FF16E09F73992E06
:10485000853619F49064992E08C0863621F4392FD4
:104860003068932E02C01111115097FE07C01C33FF
:1048700050F444244394410E27E00BC0183038F024
:1048800027E017E005C027E09CE3492E02C0212F56
:10489000412C560184E0A80EB11CF60160817181A3
:1048A00082819381042DA3010E945F2C6C01F98108
:1048B000FC87F0FF02C0F3FF06C091FC06C092FE29
:1048C00006C000E205C00DE203C00BE201C000E03B
:1048D0008C858C7019F001114BC288C297FE10C0F4
:1048E0004C0CFC85F4FF04C08A81813309F44A949E
:1048F000141474F528E0241578F588E0482E2CC0AF
:1049000096FC2AC0812F90E08C159D059CF03CEF11
:10491000C3163FEFD30674F0892D8068982E0AC025
:10492000E2E0F0E0EC0FFD1FE10FF11D808180332C
:1049300019F411501111F4CF97FE0EC04424439482
:10494000410E812F90E0C816D9062CF41C1904C022
:104950004424439401C010E097FE06C01C141D04BB
:1049600034F4C601019605C085E090E002C081E004
:1049700090E001110196112331F0212F30E02F5FDB
:104980003F4F820F931F252D30E08217930714F4B9
:10499000581A01C0512C892D897049F4552039F0DD
:1049A000B70180E290E00E945D2D5A94F7CF00237A
:1049B00029F0B701802F90E00E945D2D93FC09C083
:1049C000552039F0B70180E390E00E945D2D5A94A4
:1049D000F7CF97FE4CC04601D7FE02C0812C912C28
:1049E000C60188199909F301E80FF91FED87FE87C1
:1049F0009601241931092F87388B012F10E011956A
:104A0000019511093FEF8316930629F4B7018EE251
:104A100090E00E945D2DC814D9044CF08F859889D0
:104A20008815990524F4ED85FE85818101C080E318
:104A3000F1E08F1A91082D853E852F5F3F4F2D871E
:104A40003E87801691062CF0B70190E00E945D2D04
:104A5000D9CFC814D90441F49A81963320F4953300
:104A600019F43C8534FF81E3B70190E04BC08A81A3
:104A7000813319F09C859F7E9C87B70190E00E944E
:104A80005D2D111105C094FC18C085E690E017C09B
:104A9000B7018EE290E00E945D2D1E5F82E001E092
:104AA000080FF301E80FF11D8081B70190E00E942B
:104AB0005D2D802F0113F3CFE6CF85E490E0B701A1
:104AC000FCD7D7FC06C0C114D10441F4EC85E4FF47
:104AD00005C0D194C194D1088DE201C08BE2B70129
:104AE00090E0EBD780E32AE0C216D1042CF08F5F70
:104AF000FAE0CF1AD108F7CFB70190E0DED7B701BF
:104B0000C601C096DAD749C1833631F0833779F0D0
:104B1000833509F052C01FC0560132E0A30EB11C0C
:104B2000F6018081898301E010E0630111C0560124
:104B3000F2E0AF0EB11CF601C080D18096FE03C03A
:104B4000612F70E002C06FEF7FEFC601ABD78C0121
:104B5000F92DFF7713C0560122E0A20EB11CF60119
:104B6000C080D18096FE03C0612F70E002C06FEF5D
:104B70007FEFC6018CD78C01F92DF0689F2EF3FDD5
:104B800018C0852D90E00817190798F4B70180E246
:104B900090E093D75A94F5CFF60197FC859197FE54
:104BA00081916F01B70190E088D751105A9401505C
:104BB00011090115110581F7F0C0843611F089360D
:104BC00059F5560197FE09C024E0A20EB11CF6016A
:104BD00060817181828193810AC0F2E0AF0EB11CC5
:104BE000F60160817181072E000C880B990BF92D5D
:104BF000FF769F2E97FF09C09095809570956195DF
:104C00007F4F8F4F9F4FF0689F2E2AE030E0A30127
:104C1000D4D7C82EC6183EC0092D853721F40F7E83
:104C20002AE030E01DC0097F8F3691F018F48835F6
:104C300059F0BCC0803719F0883711F0B7C0006157
:104C400004FF09C0046007C094FE08C0066006C0E7
:104C500028E030E005C020E130E002C020E132E091
:104C6000560107FF09C084E0A80EB11CF60160815F
:104C700071818281938108C0F2E0AF0EB11CF60110
:104C80006081718180E090E0A30197D7C82EC6189B
:104C90000F77902E96FE0BC0092D0E7FC11650F493
:104CA00094FE0AC092FC08C0092D0E7E05C0DC2CC3
:104CB000092D03C0DC2C01C0D12E04FF0DC0FE0164
:104CC000EC0DF11D8081803311F4097E09C002FFD3
:104CD00006C0D394D39404C0802F867809F0D3946F
:104CE00003FD10C000FF06C01C2DD51478F4150D6F
:104CF0001D190CC0D51450F4B70180E290E0DDD648
:104D0000D394F8CFD51410F45D1801C0512C04FFD2
:104D10000FC0B70180E390E0D0D602FF16C001FDBE
:104D200003C088E790E002C088E590E0B7010CC0BE
:104D3000802F867851F001FF02C08BE201C080E233
:104D400007FD8DE2B70190E0B8D6C11630F4B70187
:104D500080E390E0B2D61150F8CFCA94F301EC0D85
:104D6000F11D8081B70190E0A8D6C110F6CF15C023
:104D7000F4E0F51550F584E0581A93FE1EC00111B9
:104D800025C02C8523FF27C00EE211E0392D30719C
:104D9000932EF8018491811121C0552009F4F3CCA0
:104DA000B70180E290E089D65A94F7CFF701868167
:104DB000978123C08FEF9FEF20C0B70180E290E082
:104DC0007CD65A945110F9CFDACF512CB701802FED
:104DD00090E073D6D6CF02E311E0D8CF9110805285
:104DE000B70190E06AD60F5F1F4FD3CF23E02515A0
:104DF00010F483E0C1CF512CC4CF6096E2E10C9453
:104E0000772F5058BB27AA270ED003C2F4D130F019
:104E1000F9D120F031F49F3F11F41EF4D9C10EF402
:104E2000E095E7FBA6C1E92F05D280F3BA17620728
:104E300073078407950718F071F49EF534C20EF4D9
:104E4000E0950B2EBA2FA02D0B01B90190010C019A
:104E5000CA01A0011124FF27591B99F0593F50F4B2
:104E6000503E68F11A16F040A22F232F342F44270A
:104E7000585FF3CF469537952795A795F040539502
:104E8000C9F77EF41F16BA0B620B730B840BBAF0D2
:104E90009150A1F0FF0FBB1F661F771F881FC2F73D
:104EA0000EC0BA0F621F731F841F48F48795779551
:104EB0006795B795F7959E3F08F0B3CF9395880F08
:104EC00008F09927EE0F9795879508952ED108F44D
:104ED00081E008950CD09DC195D140F08CD130F087
:104EE00021F45F3F19F045C15111DEC171C1A2D15A
:104EF00098F39923C9F35523B1F3951B550BBB27A1
:104F0000AA2762177307840738F09F5F5F4F220F4D
:104F1000331F441FAA1FA9F333D00E2E3AF0E0E846
:104F200030D091505040E695001CCAF729D0FE2F92
:104F300027D0660F771F881FBB1F26173707480724
:104F4000AB07B0E809F0BB0B802DBF01FF279358DA
:104F50005F4F2AF09E3F510568F00BC1A5C15F3F2E
:104F6000ECF3983EDCF3869577956795B795F795C2
:104F70009F5FC9F7880F911D9695879597F90895BA
:104F8000E1E0660F771F881FBB1F62177307840756
:104F9000BA0720F0621B730B840BBA0BEE1F88F765
:104FA000E095089504D06894B1117EC108954AD166
:104FB00088F09F5790F0B92F9927B751A0F0D1F002
:104FC000660F771F881F991F1AF0BA95C9F712C08C
:104FD000B13081F068D1B1E0089565C1672F782FB5
:104FE0008827B85F39F0B93FCCF3869577956795F8
:104FF000B395D9F73EF490958095709561957F4F64
:105000008F4F9F4F089597FB0EF4E5D03EC0E89474
:1050100009C097FB3EF490958095709561957F4F00
:105020008F4F9F4F9923A9F0F92F96E9BB279395AE
:10503000F695879577956795B795F111F8CFFAF4BE
:10504000BB0F11F460FF1BC06F5F7F4F8F4F9F4FEF
:1050500016C0882311F096E911C0772321F09EE84D
:10506000872F762F05C0662371F096E8862F70E0B3
:1050700060E02AF09A95660F771F881FDAF7880F8D
:105080009695879597F90895E894F92F96EBFF2365
:1050900081F0121613061406440B9395F695879526
:1050A0007795679557954040FF23B9F71BC099271F
:1050B0000895882351F49850D2F7872B762F652FC7
:1050C000542F432F322F20E0B1F31216130614068B
:1050D000440B88233AF09A95440F551F661F771F9B
:1050E000881FCAF755234AF4440F551F11F460FF77
:1050F00004C06F5F7F4F8F4F9F4F880F96958795A6
:1051000097F90895B9D080F09F3740F491110EF0CF
:10511000CBC060E070E080E89FEB089526F41B169A
:10512000611D711D811D2BC045C0990F0008550FD1
:10513000AA0BE0E8FEEF16161706E807F907C0F01D
:1051400012161306E407F50798F0621B730B840B25
:10515000950B39F40A2661F0232B242B252B21F4FF
:1051600008950A2609F4A140A6958FEF811D811D9F
:10517000089597F99F6780E870E060E008958823BC
:1051800071F4772321F09850872B762F07C0662380
:1051900011F499270DC09051862B70E060E02AF041
:1051A0009A95660F771F881FDAF7880F969587956F
:1051B00097F908959F3F31F0915020F487957795A6
:1051C0006795B795880F911D9695879597F90895DE
:1051D0009FEF80EC0895909580957095609550951F
:1051E0004095309521953F4F4F4F5F4F6F4F7F4F09
:1051F0008F4F9F4F089500240A941616170618061D
:105200000906089500240A941216130614060506CA
:105210000895092E0394000C11F4882352F0BB0F5B
:1052200040F4BF2B11F460FF04C06F5F7F4F8F4FBE
:105230009F4F089557FD9058440F551F59F05F3FF9
:1052400071F04795880F97FB991F61F09F3F79F0A8
:1052500087950895121613061406551FF2CF46952A
:10526000F1DF08C0161617061806991FF1CF8695AC
:105270007105610508940895E5DFA0F0BEE7B91750
:1052800088F4BB279F3860F41616B11D672F782F5E
:105290008827985FF7CF869577956795B11D939589
:1052A0009639C8F30895E894BB2766277727CB0182
:1052B00097F908953ADF08F48FEF08950BD0A9CF3E
:1052C0009ADF28F09FDF18F0952309F052CF80CFA6
:1052D0001124EACFAFDFA0F3959FD1F3950F50E0F3
:1052E000551F629FF001729FBB27F00DB11D639F98
:1052F000AA27F00DB11DAA1F649F6627B00DA11D3E
:10530000661F829F2227B00DA11D621F739FB00DE3
:10531000A11D621F839FA00D611D221F749F332753
:10532000A00D611D231F849F600D211D822F762FEC
:105330006A2F11249F5750408AF0E1F088234AF0E9
:10534000EE0FFF1FBB1F661F771F881F9150504035
:10535000A9F79E3F510570F00CCFA6CF5F3FECF34D
:10536000983EDCF3869577956795B795F795E79521
:105370009F5FC1F7FE2B880F911D9695879597F932
:105380000895FA01EE0FFF1F30962105310599F1BE
:105390006115710561F48038BFE39B0749F168949A
:1053A0009038810561F08038BFEF9B0741F0992369
:1053B00042F5FF3FE1053105210511F1E89408941C
:1053C000E795D901AA2329F4AB2FBE2FF85FD0F3BC
:1053D00010C0FF5F70F4A695E0F7F73950F019F0B0
:1053E000FF3A38F49F779F930CD00F9007FC9058AA
:1053F00008953EF0EDCE60E070E080E89FE3089510
:105400004FE79F775F934F933F932F93C2D02F9196
:105410003F914F915F9152DF29C014DFE0F09E373A
:10542000D8F09639B8F49E3848F4672F782F88273B
:10543000985FF9CF86957795679593959539D0F3D1
:10544000B62FB1706B0F711D811D20F48795779574
:105450006795939594CEAECE27CF67DE880B990BD8
:10546000089519F40EF085CE1ECFB2CEEBDEC8F350
:105470009638C0F707F80F92E8942BE33AEA48EB26
:105480005FE72ADF0F920F920F924DB75EB70F9230
:10549000C0D0ECEAF0E016D04F915F91EF91FF9110
:1054A000E595EE1FFF1F49F0FE57E0684427EE0F19
:1054B000441FFA95E1F74195550B32D00F9007FE46
:1054C00026C00895DF93CF931F930F93FF92EF921F
:1054D000DF927B018C01689405C0DA2EEF01FADEC1
:1054E000FE01E894A5912591359145915591AEF332
:1054F000EF0199DCFE019701A801DA9479F7DF90BA
:10550000EF90FF900F911F91CF91DF9108959B0134
:10551000AC0160E070E080E89FE3DCCC2ACE4ACEAC
:1055200091DEE8F39923D9F3940F511DBBF3915009
:10553000504094F059F0882332F0660F771F881F8F
:1055400091505040C1F79E3F510544F7880F911D7F
:105550009695879597F908955F3FACF0983E9CF03B
:10556000BB27869577956795B79508F4B1609395B5
:10557000C1F7BB0F58F711F460FFE8CF6F5F7F4FA3
:105580008F4F9F4FE3CF90CE0EF014CE21CE689474
:10559000F0CD58DEC8F39923D1F3C6F3DF93CF9350
:1055A0001F930F93FF92C92FDD2788232AF021979D
:1055B000660F771F881FDAF720E030E040E85FEBE6
:1055C0009FE3883920F0803E30F021968F771ADCF7
:1055D000E4EDF0E003C016DCE1E0F1E073DF8B0105
:1055E000BE01EC01FB2E6F5771097595771F880B73
:1055F000990B0FDD28E132E741E35FE36BDEAF2D6E
:105600009801AE01FF900F911F91CF91DF910BDCBC
:1056100000CEFA01DC01AA0FBB1F9B01AC01BF57F2
:1056200028F422273327442750781FC0B75188F425
:10563000AB2F0024469537952795011CA395D2F3EF
:10564000002069F0220F331F441FB395DAF30DD009
:10565000D8CB61307105A0E88A07B94630F49B01C8
:10566000AC016627772788279078309621F0208331
:1056700031834283538308950F931F93CF93DF9316
:105680008230910510F482E090E0E0915E23F09189
:105690005F2320E030E0A0E0B0E0309719F14081D6
:1056A00051810281138148175907C8F08417950763
:1056B00069F4109731F012960C93129713961C937D
:1056C00027C000935E2310935F2322C0211531056C
:1056D00019F04217530718F49A01BD01EF01DF01D9
:1056E000F801DBCF21153105F9F0281B390B2430E7
:1056F000310580F48A819B816115710521F0FB01E0
:105700008283938304C080935E2390935F23FE0182
:10571000329644C0FE01E20FF31F81939193225011
:105720003109288339833AC020915C2330915D236D
:10573000232B41F4209102203091032020935C23FD
:1057400030935D23209100203091012021153105F7
:1057500041F42DB73EB74091042050910520241B01
:10576000350BE0915C23F0915D23E217F307A0F481
:105770002E1B3F0B2817390778F0AC014E5F5F4FA7
:105780002417350748F04E0F5F1F40935C2350935A
:105790005D238193919302C0E0E0F0E0CF01DF91BF
:1057A000CF911F910F910895CF93DF93009709F444
:1057B00081C0FC01329712821382A0915E23B091C6
:1057C0005F23109781F420813181820F931F2091F4
:1057D0005C2330915D232817390751F5E0935C2352
:1057E000F0935D2367C0ED0120E030E0CE17DF07C6
:1057F00040F44A815B819E0141155105F1F0EA01B7
:10580000F5CFC283D38340815181840F951FC81780
:10581000D90759F488819981840F951F0296808356
:1058200091838A819B81828393832115310529F499
:10583000E0935E23F0935F233DC0E901EA83FB839D
:1058400049915991C40FD51FEC17FD0761F4808170
:105850009181840F951F0296E90188839983828143
:1058600093818A839B83E0E0F0E012968D919C9176
:105870001397009719F0FD01DC01F7CF8D919C91F2
:1058800011979D012E5F3F4F820F931F20915C2344
:1058900030915D232817390769F4309729F4109265
:1058A0005E2310925F2302C012821382A0935C23B6
:1058B000B0935D23DF91CF910895F894C6C328304B
:1058C00008F027E03327DA01990F311D87FD916039
:1058D00000966105710539F432602E5F3D9330E327
:1058E0002A95E1F708959F3F30F0803871056105F2
:1058F00009F03C5F3C5F3D93913008F08068911D5A
:10590000DF93CF931F930F93FF92EF92192F987FFE
:105910009695E92F96959695E90FFF27E057FE4F4C
:1059200099273327EE24FF24A701E7010590089467
:10593000079428F4360FE71EF81E491F511D660F05
:10594000771F881F991F0694A1F70590079428F4E4
:10595000E70EF81E491F561FC11D770F881F991F9C
:10596000661F0694A1F70590079428F4F80E491FC6
:10597000561FC71FD11D880F991F661F771F0694DA
:10598000A1F70590079420F4490F561FC71FD81F91
:10599000990F661F771F881F0694A9F784911095A9
:1059A000177041F0D695C79557954795F794E794AA
:1059B0001A95C1F7E6E3F1E06894159015913591D9
:1059C0006591959105907FE27395E118F10A430B7B
:1059D000560BC90BD009C0F7E10CF11E431F561F2F
:1059E000C91FD01D7EF4703311F48A95E6CFE89478
:1059F000015030F0080F0AF40027021708F4202F96
:105A00002395022F7A3328F079E37D932A95E9F7DD
:105A100010C07D932A9589F60694979567953795DA
:105A200017951794E118F10A430B560BC90BD009CF
:105A300098F023957E9173957A3308F070E37C9308
:105A40002013B8F77E9170617D9330F0839571E3F8
:105A50007D9370E32A95E1F71124EF90FF900F9169
:105A60001F91CF91DF91992787FD90950895FB01B4
:105A7000DC0102C005900D9241505040D8F70895C6
:105A8000FB01DC0105900D920020E1F70895FC0177
:105A90000590615070400110D8F7809590958E0F59
:105AA0009F1F0895FC016150704001900110D8F7CC
:105AB000809590958E0F9F1F08950F931F93CF93FE
:105AC000DF93FB01238121FD03C08FEF9FEF2CC0EB
:105AD00022FF16C046815781248135814217530722
