:10000000B2C30000D8C30000D6C30000D4C30000B0
:10001000D2C30000D0C30000CEC300000C946A1805
:10002000CAC30000C8C3000033C700000AC70000ED
:10003000C2C30000C0C30000BEC30000BCC30000B8
:10004000BAC30000B8C300000C944214B4C300004B
:10005000B2C30000B0C30000DEC700000C94C90C9E
:10006000AAC300000C94ED0CA6C30000A4C30000BA
:10007000A2C30000A0C300000C94260F9CC3000084
:100080009AC3000098C3000096C3000094C3000008
:100090000C94CE2390C300000C9401248CC3000068
:1000A0000C94110D88C300000C94350D54085708AA
:1000B0005C085F086208650868083B0F560F500F20
:1000C000440F530F530F470F4D0F1C10D50F8D0FBB
:1000D0000E101510BC0FC80FDF10C110C810D810BB
:1000E000DD10AC10AA10B410E01FE31FE81FEB1FD7
:1000F000EE1FF11FF11FF11FF11FF11FF91FF91F73
:10010000F91FF91FF91F012004204A205320602005
:1001100084208D209B209B209B209B209B20AC201B
:10012000AC20AC20AC20AC20C120D32007634236E9
:10013000B79BD8A71A39685618AEBAAB558C1D3C78
:10014000B7CC5763BD6DEDFD753EF6177231BF003C
:100150000000803F08000000BE922449123EABAA76
:10016000AA2ABECDCCCC4C3E00000080BEABAAAAD1
:10017000AA3E00000000BF000000803F0000000019
:1001800000084178D3BB4387D1133D190E3CC3BD52
:100190004282AD2B3E68EC8276BED98FE1A93E4CFF
:1001A00080EFFFBE01C4FF7F3F00000000006E61D2
:1001B0006E00696E660000407A10F35A00A0724E1D
:1001C00018090010A5D4E80000E87648170000E4FC
:1001D0000B54020000CA9A3B000000E1F505000044
:1001E00080969800000040420F000000A0860100A9
:1001F0000000102700000000E80300000000640079
:10020000000000000A0000000000010000000000E3
:100210002C76D888DC674F0823DFC1DFAE59E1B107
:10022000B796E5E3E453C63AE651997696E8E6C216
:100230008426EB898C9B62ED407C6FFCEFBC9C9F1D
:1002400040F2BAA56FA5F490055A2AF75C936B6C3F
:10025000F9676DC11BFCE0E40D47FEF520E6B50033
:10026000D0ED902E0300943577050080841E0800A1
:1002700000204E0A000000C80C333333330F986E51
:1002800012831141EF8D2114893BE65516CFFEE60E
:10029000DB18D1844B381BF77C1D901DA4BBE424D4
:1002A000203284725E228100C9F124ECA1E53D2751
:1002B0003F25690A0062617474657279206F666611
:1002C0000A007265736574454550524F4D0A0A0025
:1002D00004002C0101000A0014001E002800320056
:1002E00038FFD4FE70FEA8FD18FC6F12833A0000A0
:1002F000C0400000F04119010000000000000000B3
:10030000004661737400000000000000000000005F
:10031000005A005B005D006000640069006F0076B9
:10032000007E00870091009C00A800B500C300D2A9
:1003300000E200F300050118012C01450168019558
:1003400001CC010D025802AD020C036B03C0030186
:10035000042E0451046A047E048D049C04AB04BA88
:1003600004C90400000000000000000000000000BC
:10037000000000000000000000000000000000007D
:100380000000000000000000000000E001720120F9
:1003900001E900C000A3008E0080007800700069B1
:1003A0000062005B0054004E00480042003C0036F2
:1003B0000030002A000000000000000000000000E3
:1003C000000000000000000000000000000000002D
:1003D00000000000000000000000000000400109D3
:1003E00001D700B40096007D006C0061005A0053F4
:1003F000004D00480043003E00390034002F002A21
:1004000000250020001B000001010000000000008A
:100410004D656469756D000000000000000000007B
:100420006C006F00720076007B00800087008E00F9
:100430009600A000AB00BA00C900DB00EF00050188
:100440001D01370152018001B001DE0112023E029E
:1004500070029F02D302090345037C03AF03D70355
:10046000F4030D04210431043E044D045C046B04C8
:100470007B040000000000000000000000000000FD
:10048000000000000000000000000000000000006C
:1004900000000000000000000000FE01AD016B0143
:1004A0003E011801FB00E300CE00BD00AF00A2003A
:1004B0009300850078006C00620058004D004300F6
:1004C0003B003300000000000000000000000000BE
:1004D000000000000000000000000000000000001C
:1004E00000000000000000000000000040011101B9
:1004F000E400C500A9009400830078007000670044
:10050000600058005100490042003A0033002C00BE
:10051000250020001C000001010000000000005325
:100520006C6F770000000000000000000000007FFA
:1005300000830088008D00920098009F00A700AF04
:1005400000BA00C600D800EA0002011B01390158B8
:10055000017B019F01E90134027802BD02E8021427
:100560000331034E0366037E038E039F03AD03BB7B
:1005700003CA03D903E403F003FE030D041D042E94
:100580000400000000000000000000000000000067
:10059000000000000000000000000000000000005B
:1005A0000000000000000000001C02E901B60193F9
:1005B000017001540138011D010301EF00DB00C58A
:1005C00000B0009D008A007C006E005F0051004674
:1005D000003C0000000000000000000000000000DF
:1005E000000000000000000000000000000000000B
:1005F000000000000000000000000040011901F2AE
:1006000000D700BD00AC009B00900086007C00730A
:100610000069005F0055004B00410037002E0025A7
:100620000021001E00000101000000000000204326
:10063000362025750A002043352025750A00204301
:10064000342025750A002043332025750A002043F5
:10065000322025750A002043312025750A006D736C
:10066000353631312063616C6962726174696F6E15
:1006700020646174610A002041434B0A00204E410E
:10068000434B0A004D533536313120436865636B67
:100690002049440A002425732A253032580D0A00C7
:1006A0004C4B384558312C25302E30662C39393991
:1006B00039392C25302E30662C25302E30662C39D9
:1006C00039392C006265616E3200636D642025301B
:1006D00032580A006163746976653A202564006BBC
:1006E000616C6D616E20502025302E35660A006BDE
:1006F000616C6D616E20522025302E35660A006BCC
:10070000616C6D616E20512025302E35660A0050D7
:100710006F776572204F6E0A0045787465726E615E
:100720006C0A00424F520A005744540A0050444990
:100730000A00536F6674776172650A005253542E33
:1007400053544154555320253032580A000A0A2A7E
:100750002A2A7374617274696E672A2A2A0A0A0047
:10076000F022A725F82211241FBECFEFCDBFDFE274
:10077000DEBF10E2A0E0B0E2E4EBF4E602C00590D8
:100780000D92A433B107D9F723E2A4E3B0E201C08C
:100790001D92A637B207E1F713E0C2EBD3E004C025
:1007A0002197FE010E94B330C03BD107C9F70E94D8
:1007B0003A240C94712E24CCAAECB1E092E09C93E4
:1007C000E82FF0E084911C920895CF92DF92EF928F
:1007D000FF92CF93C82F80E2EFDF80930C0281E27B
:1007E000EBDF80930D0281E0809300021092010202
:1007F00083E08093020240910E2050910F2060917F
:1008000010207091112022E030E0822F6A017B01DC
:10081000022E04C0F694E794D794C7940A94D2F7B2
:1008200091E8C91694E8D9069EE1E906F10430F092
:100830002F5F3F4F2A30310541F78AE082508370A5
:1008400080930402809102028F7CC82BC093020225
:10085000CF91FF90EF90DF90CF900895FC01862F0D
:1008600090E0603A48F090819C7F91609083918104
:10087000880F880F880F0AC020812C7F2083218158
:1008800033E0880F991F3A95E1F7922F9778892BDB
:1008900081830895FC019081906890830895FC0104
:1008A0008481958108958230E1F158F48823C1F064
:1008B000813009F071C080915000816080935000B8
:1008C00022C0833009F440C0843009F065C08BEC4D
:1008D000809352008091500088608093500047C000
:1008E000809150008460809350008091510082FF7D
:1008F000FCCF62E080E490E00E94620D80E090E82E
:10090000A0E0B0E041C08091510080FFFCCF60E0EA
:1009100080E490E00E94620D80E894E8AEE1B0E0EF
:1009200033C08091500080628093500080915100CC
:1009300085FFFCCF65E080E490E00E94620D80E0DE
:1009400092E1AAE7B0E020C08091500082608093DD
:1009500050008091510081FFFCCF61E080E490E085
:100960000E94620D80E098E4A8EEB1E00DC0809195
:10097000510083FFFCCF63E080E490E00E94620DB1
:1009800080E094E2A4EFB0E08093122090931320D3
:10099000A0931420B09315208091122090911320E1
:1009A000A0911420B09115208093062090930720E9
:1009B000A0930820B093092080930A2090930B20E5
:1009C000A0930C20B0930D2080930E2090930F20C5
:1009D000A0931020B0931120089521E030E001C0D1
:1009E000220F6A95EAF7FC01442311F0258308954C
:1009F00026830895FC01208581E090E0062E02C048
:100A0000880F991F0A94E2F730E08223932302C0F3
:100A1000959587956A95E2F708954096FC01E60F53
:100A2000F11D8081482B408308954096E62FF0E029
:100A3000E80FF91F8081413011F4806401C08F7B81
:100A40008083089521E030E001C0220F6A95EAF723
:100A5000FC01442311F02183089522830895FC01B1
:100A6000442319F0413061F00895228581E090E03F
:100A700001C0880F6A95EAF78095822382870895DE
:100A8000228581E090E001C0880F6A95EAF7822B09
:100A900082878185816081870895FC017096E60FC9
:100AA000F11D3081232B2083DACFFC016687089566
:100AB000FC0110861186128613860895AF92BF92AC
:100AC000CF92EF92FF920F931F93CF93DF93EC019E
:100AD0005B01F42E1A8268837983A9019801220FA1
:100AE000331F441F551F60910E2070910F2080917D
:100AF0001020909111200E9491302550F5012583FE
:100B0000E881F98188EF8183E881F98187E0838337
:100B1000E881F98181E0848386E090E0ECD78C0164
:100B20006E2DEDD70C871D8786E090E0E4D78C0111
:100B30006C2DE5D70E871F871E821F82EF2DF0E0F8
:100B4000EE0FFF1FEC5CFF4DC083D183DF91CF918F
:100B50001F910F91FF90EF90CF90BF90AF900895AD
:100B6000FC0186859785F0C7FC0184859585D6C7ED
:100B7000FC0145836483A081B1818481880F16962E
:100B80008C9381E08783168284859585F7C70F93C0
:100B90001F93CF93DF93EC01E881F981148117FF54
:100BA00017C08D818F3F11F4878106C067818C85C6
:100BB0009D85CAD78D8181508D838D81E881F98192
:100BC000882319F082E0838303C087E083831F8238
:100BD00016FF31C014FD25C08E859F85CCD7882394
:100BE00039F0088119818E859F8598D7F801878310
:100BF0008E859F85C0D781111EC08E859F85BED7EB
:100C00008D81E881F981882349F081E08383E8813F
:100C1000F9818C81880F816086830DC083E0838396
:100C200009C081E08E83E881F98183E083838E852A
:100C30009F85A4D71F82DF91CF911F910F910895B7
:100C4000FC0186810895DC0117962C9117972111DC
:100C500005C0ED91FC9184818370089583E008952F
:100C6000CF93DF93EC01CE01EEDF8130E1F7DF912E
:100C7000CF910895CF93DF93EC0181E08F83E881DA
:100C8000F981828581FF06C0E885F985309711F0EA
:100C9000CE010995E881F98183E08187DF91CF91C9
:100CA0000895CF93DF93EC016730B1F48B8181110C
:100CB00009C0E885F985309721F1CE0109958C8529
:100CC0009D8508C0EA85FB853097D9F0CE0109954E
:100CD0008E859F8553D715C080916A23882389F01C
:100CE0001F926F9380EB92E09F938F930E94AD2FA2
:100CF0000F900F900F900F9088EF92E2D5D388233A
:100D0000D9F31F82DF91CF910895FC01A081B181B9
:100D10001A969C911A9790641A969C9367E0CF015B
:100D2000C0CFCF93DF93FC01358184859585DC01AD
:100D300012962C91A081B181321758F4EF011C96C4
:100D40006C9102D7E881F98183E08187DF91CF91AF
:100D5000089586E019968C9364E0CF01DF91CF91DE
:100D6000A0CF0F931F93CF93DF93DC01ED91FC9104
:100D7000228524FD1BC0EC018E859F85FCD6088151
:100D80001981882331F08E859F85C8D6F801848724
:100D900004C08FEFD8011C968C93E881F98183E021
:100DA0008187DF91CF911F910F91089522E02187D4
:100DB00067E0DF91CF911F910F9173CFDC01ED912F
:100DC000FC91328521E0432F427031FF20E0FC018D
:100DD00023834111C6CFA5CFCF93DF93EC01E881E8
:100DE000F981828582FF0AC08C859D85C7D68E8554
:100DF0009F85C4D681E08E8362E01FC083FF0AC056
:100E00008C859D85BBD68E859F85B8D681E08E83E7
:100E100066E013C086FF0AC080FF04C0CE01DF91E8
:100E2000CF9128CFCE01DF91CF916FCF87FF04C044
:100E3000CE01DF91CF91C2CF60E0CE01DF91CF91A3
:100E400030CF1F920F920FB60F9211242F933F9322
:100E50004F935F936F937F938F939F93AF93BF93C2
:100E6000EF93FF93809134209091352090DEFF9195
:100E7000EF91BF91AF919F918F917F916F915F9112
:100E80004F913F912F910F900FBE0F901F9018958B
:100E90001F920F920FB60F9211242F933F934F93EF
:100EA0005F936F937F938F939F93AF93BF93EF93D2
:100EB000FF9380913420909135208EDFFF91EF9148
:100EC000BF91AF919F918F917F916F915F914F9162
:100ED0003F912F910F900FBE0F901F9018959091FA
:100EE000010490FDFCCF813091F068F08230F9F080
:100EF000833099F582E080935200809150008860A1
:100F00008093500021C080914300816024C082E220
:100F100080935200809150008860809350008091AF
:100F2000510083FFFCCF80914300836014C0809107
:100F300050008460809350008091510082FFFCCF6C
:100F400080914300856007C08091510083FFFCCFF2
:100F5000809143008B608093430080910004682B54
:100F600060930004089580FF0AC09091030491608B
:100F7000909303049091020492609093020481FF85
:100F80000AC080910304826080930304809102046C
:100F9000886080930204089580FF05C09091020448
:100FA0009D7F9093020481FF05C080910204877F9A
:100FB0008093020408958091080490910904089593
:100FC00041E0FC0161858781908507CD0F931F93D8
:100FD000CF93DF93EC01E881F98163818A819B8162
:100FE000B3D58C819D81C7D5882341F008811981B3
:100FF0008C819D8193D5F801838308C0CE01E0DF09
:101000001E82E881F98181818E7F8183DF91CF917A
:101010001F910F9108951F920F920FB60F921124F6
:101020002F933F934F935F936F937F938F939F93F0
:10103000AF93BF93EF93FF93809138209091392025
:10104000C5DFFF91EF91BF91AF919F918F917F91FC
:101050006F915F914F913F912F910F900FBE0F9025
:101060001F901895E8E4F0E081E080838895108275
:101070000895E8E4F0E085E0808388951082089583
:10108000CF92DF92EF92FF92CF93DF93EC016C83CC
:101090007D834E8750E0FA013197E730F105D8F4AF
:1010A000EA5AFF4F0C94B33081E090E002C082E036
:1010B00090E08E839F8311C084E090E0FACF88E0B7
:1010C00090E0F7CF80E490E0F4CF80E091E0F1CFC2
:1010D00080E094E0EECF1E821F822E813F8140E0AF
:1010E00050E060910E2070910F208091102090911F
:1010F00011200E949130CA01B9010E941B2A6B0184
:101100007C019B01AC0160E078E18CE797E40E94F0
:101110007E29688779878A879B8720E030E04AE7C5
:1011200054E4C701B6010E94722B9B01AC0160E040
:1011300070E080E89FE30E947E290E94EB296C8783
:101140007D8781E08F87DF91CF91FF90EF90DF90D7
:10115000CF900895FB01BA01DC01ED93FC93119748
:1011600012961D921C921397422F8ACFFB01BA014F
:10117000DC011D921C9211971296ED93FC9313972C
:10118000422F7ECFFC01A081B1819685109719F086
:101190009F709C9308950280F381E02D9F7090834F
:1011A0000895DC01ED91FC91309729F4DC01129651
:1011B000ED91FC91139710820895DC01ED91FC9163
:1011C000309729F4DC011296ED91FC9113978181FF
:1011D000887F682B61830895DC01ED91FC91309745
:1011E00029F4DC011296ED91FC9113978481682B10
:1011F00064830895DC01ED91FC916095309729F4AA
:10120000DC011296ED91FC9113978481682364832D
:101210000895DC01ED91FC91309729F4DC011296E0
:10122000ED91FC91139766A377A30895FC01A0812B
:10123000B181962F9170862F84701097F1F09923C9
:1012400021F0D8964D935C93D997882331F0A081F3
:10125000B181DA964D935C93DB9764FF06C0A08161
:10126000B181DC964D935C93DD9766FF15C00190CC
:10127000F081E02D46AF57AF0895992331F0A28158
:10128000B381D8964D935C93D997882329F0028037
:10129000F381E02D42AF53AF0895CF93DF93DC018C
:1012A000ED91FC911197309721F41296ED91FC91FC
:1012B0001397EF012696379660FF06C090811F9620
:1012C0008C911F97892B808361FF0AC020811F9614
:1012D0009C911F9734E0939FC0011124822B80833F
:1012E00062FF0AC020811F969C911F9730E1939F57
:1012F000C0011124822B808363FF0AC020811F96C6
:101300009C911F9730E4939FC0011124822B80830E
:1013100064FF06C098811F968C911F97892B888344
:1013200065FF09C028811F969C9134E0939FC001FE
:101330001124822B8883DF91CF910895DC01ED91F8
:10134000FC91309729F4DC011296ED91FC911397F2
:1013500081E084870895DC01ED91FC91309729F4B8
:10136000DC011296ED91FC91139780A191A1089553
:10137000DC01ED91FC91309729F4DC011296ED919E
:10138000FC91139760A371A30895CF93C82F60E0D9
:1013900070E080E89FE31C1644F4C1509B01AC014F
:1013A0000E941629C111F9CF0AC0CC2341F0CF5FAA
:1013B00020E030E040E05FE30E94722BF6CFCF9157
:1013C000089508950895CF93DF93EC01A881B98122
:1013D00011968C9111978C7121F5EA81FB818D8991
:1013E00091E0980F9D8BE80FF11D8C9180839D8972
:1013F000888D981301C01D8A8F898F5F8F8B988D80
:10140000891301C01F8A8E819F81009751F03F8907
:101410002A85321730F041E02985211140E06885A6
:10142000DCDAE889F989309721F0CE01DF91CF919C
:101430000994DF91CF910895CF93DF93EC018B85D1
:101440009C85009721F48B8D81110FC022C06D8582
:10145000D1DA90E021E030E04E85442311F020E025
:1014600030E08217930779F71CC08B8D81508B8FEA
:10147000A881B981EC81FD81898D91E0980F998FC8
:10148000E80FF11D80818C93998D8C8D981301C08C
:10149000198EEA89FB89309721F0CE01DF91CF9137
:1014A0000994DF91CF910895FC01938D81E0911112
:1014B00080E00895FC01978981E0911180E0089512
:1014C000FC01613029F030F0623031F4678704C0EC
:1014D00083E001C081E08787A081B18112968C9161
:1014E0001297837C12968C93808D882369F0A0815B
:1014F000B18112962C911297978530E1939FC0018C
:101500001124822B12968C93848D882369F0A081FC
:10151000B18112962C911297978534E0939FC00168
:101520001124822B12968C9308952F923F924F9202
:101530005F926F927F928F929F92AF92BF92CF9263
:10154000DF92EF92FF920F931F93CF93DF93CDB76C
:10155000DEB76C97CDBFDEBF1C016D8B7E8B260185
:101560003701AF8A888EDC0150961D921C925197EC
:1015700052961D921C92539780910E2090910F20AD
:10158000A0911020B09111208B879C87AD87BE87DA
:1015900024E0B695A795979587952A95D1F78C1550
:1015A0009D05AE05BF0518F498E09A8702C0A0E13A
:1015B000AA8780E090E0A0E8BFE38E839F83A8879E
:1015C000B9871D821F86188A17E09A85892F90E0B7
:1015D000A0E0B0E0898F9A8FAB8FBC8F17FD3FC022
:1015E0006B857C858D859E850E941B2A4B015C0145
:1015F000812FCBDE6B017C01698D7A8D8B8D9C8D6B
:101600000E941D2AA70196010E94722B6B017C018A
:10161000C301B2010E941B2AA70196010E94722BEE
:101620009B01AC01C501B4010E947E2920E030E09D
:1016300040E85FE30E9415290E94EB2969837A83C1
:101640006F5F7F4F80E090E00E941B2AA701960108
:101650000E94722B9B01AC01C501B4015CC0812FBB
:1016600094DE4B015C016B857C858D859E850E9497
:101670001B2A6B017C01698D7A8D8B8D9C8D0E945C
:101680001D2A698B7A8B8B8B9C8BC301B2010E94C4
:101690001B2A29893A894B895C890E94722B9B01FC
:1016A000AC01C701B6010E947E2920E030E040E88D
:1016B0005FE30E94152969837A838B839C83A5014C
:1016C000940160E070E080E89FE30E947E299B0126
:1016D000AC0169817A818B819C810E94722B0E946E
:1016E000EB2969837A8380E090E00E941B2AA501A0
:1016F00094010E94722B20E030E040E85FE30E94FA
:10170000162929893A894B895C890E94722B9B0191
:10171000AC01C701B6010E947E290E94EB290E94FC
:101720001B2A6B017C01C301B2010E941B2A9B0191
:10173000AC01C701B6010E947E299B01AC0160E0AB
:1017400070E080E89FE30E9415296B017C0120E096
:1017500030E0A9010E946E2B181624F0C701B601D3
:10176000905802C0C701B6012E813F814885598536
:101770000E947A2987FF24C0A981BA81AF3FBF4068
:10178000F8F420E030E0A901C701B6010E946E2BF9
:1017900018166CF0D701C601B0588E839F83A887B6
:1017A000B9871D8399819F87AA81A88B09C0CE82A2
:1017B000DF82E886F9861D83B981BF87EA81E88BDD
:1017C0001150183F09F00ACFED89FE89D101ED9340
:1017D000FC9311972F852683ED91FC9111978D81B4
:1017E0008295807F9889892B8783ED91FC91119751
:1017F0001382ED91FC911282AA85A83031F4D101B7
:10180000ED91FC918381846083832F89F101208F86
:10181000222341F0808D90E070D1D10112968D93FA
:101820009C931397288DF101248F222341F0848DFE
:1018300090E063D1D10114968D939C931597F1019B
:10184000128E168A158A178A118E138E0190F081D6
:10185000E02D83E08483D10158968C91589788239A
:1018600029F0ED91FC91838180618383F101848D66
:10187000882331F00190F081E02D8381886083839B
:10188000D10116961D921C9217971B961D921C92C1
:101890001C971F961C9260E0C10112DEE02FF0E061
:1018A000EE0FFF1FE85CFF4D208231826C96CDBFAA
:1018B000DEBFDF91CF911F910F91FF90EF90DF90EE
:1018C000CF90BF90AF909F908F907F906F905F90E0
:1018D0004F903F902F900895FC01938D848D981721
:1018E000E1F3838D811107C0A081B18111968C91A4
:1018F000119785FD14C0F894838D8F5F838FA48129
:10190000B581828D91E0980F928FA80FB11D6C93D5
:101910007894928D848D981303C0128E08956C93E1
:101920000895CF93FC0187898823E9F3A281B381CD
:10193000868991E0980F968BA80FB11DCC9196895E
:10194000808D981301C0168AF89487898150878BFF
:10195000789486819781009739F0378922853217EC
:1019600018F44185608539D88C2FCF910895E82FE0
:10197000F0E0EE0FFF1FE85CFF4D8081918123CDE9
:10198000E82FF0E0EE0FFF1FE85CFF4D80819181B2
:1019900053CD1F920F920FB60F9211242F933F93A6
:1019A0004F935F936F937F938F939F93AF93BF9367
:1019B000EF93FF9380E0DBDFFF91EF91BF91AF9159
:1019C0009F918F917F916F915F914F913F912F9157
:1019D0000F900FBE0F901F9018951F920F920FB689
:1019E0000F9211242F933F934F935F936F937F93A5
:1019F0008F939F93AF93BF93EF93FF9380E0C0DFEC
:101A0000FF91EF91BF91AF919F918F917F916F91D6
:101A10005F914F913F912F910F900FBE0F901F90AC
:101A200018951F920F920FB60F9211242F933F9388
:101A30004F935F936F937F938F939F93AF93BF93D6
:101A4000EF93FF9381E093DFFF91EF91BF91AF910F
:101A50009F918F917F916F915F914F913F912F91C6
:101A60000F900FBE0F901F9018951F920F920FB6F8
:101A70000F9211242F933F934F935F936F937F9314
:101A80008F939F93AF93BF93EF93FF9381E078DFA2
:101A9000FF91EF91BF91AF919F918F917F916F9146
:101AA0005F914F913F912F910F900FBE0F901F901C
:101AB0001895682F636080E890E004C061E080E8DA
:101AC00090E000C00F931BBEFC0108ED04BF6083D3
:101AD0000F910895E0EAF0E0828187608283789434
:101AE000089598E0282F2427869520FD862746957F
:101AF0009150C1F708950C94502D0C94502DCF9314
:101B0000DF93EC016A83862F90E0F7DF8883998367
:101B10001D821B821C82DF91CF910895FC0185817B
:101B2000882389F08581815085838381A081B1815B
:101B3000A80FB11D8C9193819F5F93832381928124
:101B4000291708F013820895FC0195818281981766
:101B500018F485818F5F85838481A081B181A80F6E
:101B6000B11D6C9384818F5F8483948182819817E7
:101B700008F014820895FC0185810895FC01158206
:101B800013821482089580E00E94E503E0E0F2E011
:101B900081818061818363EA80E292E00C942E046B
:101BA0000F931F938091532090915420892B09F01B
:101BB000A5C00E94881800913F20109140202091DC
:101BC000412030914220601771078207930708F483
:101BD00095C080911620813009F44DC020F08230EC
:101BE00009F463C08BC080913D2090913E206AE053
:101BF00070E00E946A306093432070934420072E67
:101C0000000C880B990B0E941D2A20E030E847E366
:101C100054E40E947A2987FD1AC081E0809316203F
:101C20000E948818DC01CB01805A9541AF4FBF4F0D
:101C300080933F2090934020A0934120B093422076
:101C400010923D2010923E2010923C2057C086E01A
:101C500007D180916A23882301F385EB92E09F935B
:101C60008F930E94AD2F0F900F9088EF92E21CDCB3
:101C70008823D9F3D2CF85E0809371008091000250
:101C800081608093000241E064E080E096E00E9481
:101C9000220541E064E080E096E00E94ED0480E2ED
:101CA00092E00E944A0482E027C040E064E080E0C5
:101CB00096E00E94220580E292E00E944F0420916B
:101CC0003D2030913E20820F931F80933D209093C2
:101CD0003E20809100028E7F8093000287E08093F7
:101CE000710080913C208F5F80933C208A3018F0F7
:101CF0001092162003C081E0809316201F910F914F
:101D0000089540E062E080E096E00E94220548E10C
:101D100062E080E096E00E940D0541E061E080E035
:101D200096E00E94220541E060E080E096E00E949B
:101D3000220541E061E080E096E00E94ED0441E090
:101D400060E080E096E00C94ED0462E080E096E0D4
:101D50000E94FA0490915920811121C0911112C062
:101D60000E94881860935C2070935D2080935E20B1
:101D700090935F2010925A2010925B2081E0809314
:101D8000592008950E94881820915C2030915D2090
:101D9000621B730B60935A2070935B2008959150DF
:101DA000923010F4109259201092182008958091CA
:101DB000592081110AC020915A2030915B202B506C
:101DC000310981E0293E314008F080E0089580919A
:101DD0005920813049F420915A2030915B202B50BA
:101DE0003109293E314008F080E008958091592062
:101DF000811108C081E020915A2030915B20253F5D
:101E0000314008F480E0089580915920813039F400
:101E100020915A2030915B20253F314008F480E02A
:101E2000089580915920813039F420915A203091C1
:101E30005B20213D374008F480E0089510925A203D
:101E400010925B2082E08093592008951F920F9298
:101E50000FB60F9211240F900FBE0F901F90189580
:101E60008093552090E08830910558F5FC01E35AA5
:101E7000FF4F0C94B33010925320109254201092C4
:101E8000D1211092D2211DC041E060E002C040E0AB
:101E900061E080E096E00E94ED0484E690E00DC0F1
:101EA00088E790E00AC088EC90E007C08091562057
:101EB00028E2829FC001112444968093532090937E
:101EC000542081E080931B200895809191208F5FA2
:101ED000853008F081E08093912083E08093582042
:101EE000809191208093562081E0BADF0C94D51721
:101EF0008091532090915420009709F4DAC0E0912A
:101F000055204E2F50E0FA013197E730F10508F0E7
:101F1000BFC0EB59FF4F0C94B3308431910518F0DA
:101F200020E030E002C02CE231E0AC01485251091F
:101F30004431510510F428E532E080559109449769
:101F400010F424E833E02093D1213093D221232BC5
:101F500011F040E001C041E061E080E096E00E94C5
:101F6000ED048091532090915420019709F090C086
:101F700081E08093882009C028EE33E02093D121AE
:101F80003093D221019709F083C041E061E07CC029
:101F900022E330E02093D1213093D221019709F040
:101FA00077C081E08093882073C09C01245131095F
:101FB0002431310518F020E030E002C024E833E09D
:101FC000AC014C5351094431510510F428E532E07D
:101FD00084569109449710F42CE231E02093D121EA
:101FE0003093D221232B11F040E001C041E060E0AA
:101FF00080E096E00E94ED0480915320909154205F
:10200000019709F045C0809196208F5F80935620FC
:1020100083E08093582081E023DF3AC024EF31E051
:10202000A901481B590BCA0102C080579E4F8093DB
:10203000D1219093D2212CC068E270E00E946A30D6
:10204000459760F41092D1211092D22141E061E0D5
:1020500080E096E00E94ED0441E015C08CEB92E038
:102060008093D1219093D2218091582080FF06C087
:1020700040E061E080E096E00E94ED04809158200D
:1020800081FF06C040E060E080E096E00E94ED0441
:1020900080915320909154200197809353209093E6
:1020A0005420892B31F410921B201092D1211092D0
:1020B000D2210895E091C821F0E0EE0FFF1FE9560C
:1020C000FF4D60817181072E000C880B990B0E94D7
:1020D0001D2A20E030E048EC52E40E947E29609303
:1020E000892070938A2080938B2090938C20E0919C
:1020F000C921F0E0EE0FFF1FEF55FF4D60817181A8
:10210000072E000C880B990B0E941D2A20E030E05E
:1021100048EC52E40E947E2960938D2070938E20BB
:1021200080938F2090939020089520914D2030E04F
:102130002F5F3F4F822F20934D20E0914C204E2F58
:1021400050E04830510508F046C0FA01E459FF4F0D
:102150000C94B33040E001C041E060E080E096E0E4
:102160000E94ED0440E032C064E10E945E309A308B
:1021700030F540E061E080E096E00E94ED0440E050
:1021800015C064E10E945E3040E09A30C8F408C097
:1021900064E10E945E309A3010F440E001C041E0FA
:1021A00061E080E096E00E94ED0441E060E00FC055
:1021B00064E10E945E309A3010F440E001C041E0DA
:1021C00060E080E096E00E94ED0441E061E080E0A4
:1021D00096E00C94ED0408959BD76093482070938B
:1021E000492080934A2090934B206091E121709187
:1021F000E2218091E3219091E4210E94E6296093FD
:1022000046207093472008958F929F92AF92BF927D
:10221000CF92DF92EF92FF92809193209091942041
:10222000892B09F475C06091462070914720C090B9
:10223000E121D090E221E090E321F090E421072E0B
:10224000000C880B990B0E941D2AA70196010E9481
:10225000152920E030E0A9010E946E2B60914620F4
:102260007091472018169CF4072E000C880B990BD0
:102270000E941D2AA70196010E94152920E030E046
:1022800040E85FE30E946E2B18169CF01BC0072EDF
:10229000000C880B990B0E941D2AA70196010E9431
:1022A000152920E030E040E85FEB0E947A2987FFA3
:1022B00009C0FF90EF90DF90CF90BF90AF909F90BC
:1022C0008F908ACF25D7C0904820D0904920E090A9
:1022D0004A20F0904B2020919320309194204B0184
:1022E0005C018C189D08AE08BF08A8EEB3E00E9400
:1022F000B930681579058A059B0550F483E0FF9095
:10230000EF90DF90CF90BF90AF909F908F90A8CD2F
:10231000FF90EF90DF90CF90BF90AF909F908F9005
:1023200008950F931F9380911720882321F082E056
:1023300097DD10921720DCDD80915320909154207E
:10234000892B51F0E5D660934F20709350208093F5
:10235000512090935220FBC1F8DCE7DE809157209A
:10236000811104C010921B204FDF08C081E08093D0
:102370001B201092D1211092D2212EDF8091572064
:10238000823009F4FDC030F4882369F0813009F40B
:102390009FC0DDC1843009F460C008F43FC18530BE
:1023A00009F489C1D4C13DDD8823B9F0809118209A
:1023B000882381F0ADD660934F2070935020809396
:1023C00051209093522085E08093572081E08093A4
:1023D0004E2002C083E044DD31DDE9DC882309F1D1
:1023E00080914520882381F081E080934C2090D615
:1023F00060934F20709350208093512090935220EF
:1024000084E0809357200CC081E08093452080D6E3
:1024100060934F20709350208093512090935220CE
:102420000DDD76D600914F20109150202091512043
:1024300030915220DC01CB01801B910BA20BB30B1E
:102440008D329140A105B10508F481C180915920D8
:1024500081117DC1109245207AC1A9DC882361F0E9
:10246000EDDC33DDB9DE54D660934F2070935020FD
:102470008093512090935220C7DC882319F086E086
:1024800080934C20B3DC882369F042D660934F20C0
:1024900070935020809351209093522081E080933C
:1024A0005720CCDC35D600914F2010915020209140
:1024B000512030915220DC01CB01801B910BA20BEB
:1024C000B30B81379741A105B10508F440C14FC056
:1024D0007EDC882319F084E080934C2095DC8823EF
:1024E00019F085E080934C2062DC8823A1F082E023
:1024F0008093572081E080934E20A0DC84E080937D
:102500004C20AEDC05D660934F2070935020809312
:102510005120909352206ADC8823A1F083E08093BD
:10252000572081E080934E2089DC85E080934C2009
:1025300097DCEED560934F2070935020809351200C
:1025400090935220E5D500914F201091502020917A
:10255000512030915220DC01CB01801B910BA20B4A
:10256000B30B893B9B40A105B10508F4F0C08091F5
:1025700059208111ECC01092572010924C20E7C0D6
:1025800084E080934C2013DC8823C1F057DCC0D555
:1025900060934F207093502080935120909352204D
:1025A0008091C8218F5F853018F48093C82102C0C4
:1025B0001092C8217FDD81E080934E2080914E20D3
:1025C000882361F010924E208091C8218F5F809304
:1025D000562082E08093582081E042DC99D500911A
:1025E0004F20109150202091512030915220DC0139
:1025F000CB01801B910BA20BB30B81379741A10537
:10260000B10508F4A4C0809159208111A0C0109296
:10261000572010924C201F910F91D6C485E08093D3
:102620004C20C5DB8823C1F009DC72D560934F20B4
:102630007093502080935120909352208091C92113
:102640008F5F853018F48093C92102C01092C92190
:1026500031DD81E080934E2080914E20882359F017
:1026600010924E208091C9218F5F8093562081E087
:1026700080935820F5DB4CD500914F2010915020CD
:102680002091512030915220DC01CB01801B910B15
:10269000A20BB30B81379741A105B10508F457C0D0
:1026A00080915920811153C01092572010924C20D4
:1026B0001F910F91A1C487E080934C2078DB882381
:1026C000B9F0BCDB25D560934F20709350208093E8
:1026D000512090935220809196208F5F833018F480
:1026E0008093962002C01092962081E080934E2025
:1026F00080914E20882361F010924E208091962088
:102700008F5F8093562083E08093582081E0A8DB80
:10271000FFD400914F2010915020209151203091F2
:102720005220DC01CB01801B910BA20BB30B813734
:102730009741A105B10558F080915920811107C03A
:102740001092572010924C201F910F916DC41F9131
:102750000F910895809191208230C9F028F4882348
:1027600041F0813051F008958330D9F0843019F16F
:10277000089580EF80934206089561E488E790E22F
:102780000E94EC0880E68093420680E91DC061E16A
:1027900088E790E20E94EC0880EA8093420680E598
:1027A00013C064E488E790E20E94EC0880E580931F
:1027B000420680EA09C064E188E790E20E94EC08E2
:1027C00080E98093420680E6809341060895CF9386
:1027D000DF93EC01AC015695479565E588E790E2FB
:1027E0000E941609BE0188E790E20E940909B2DF43
:1027F00088E790E20E94AB09C817D90740F460E06F
:1028000070E088E790E2DF91CF910C94B809DF91F6
:10281000CF910895BC01892B89F410926620109203
:1028200067208091612081112CC088E790E20E948E
:10283000D10865E588E790E20C94FA0882E19AE70E
:102840000E946A30609366207093672080916120B7
:10285000811105C08091662090916720B8DF80913A
:10286000B820882321F080916020882321F088E718
:1028700090E20C94C2088091662090916720A7DFB7
:10288000F6CF08951F920F920FB60F9211242F9337
:102890003F934F935F936F937F938F939F93AF93E8
:1028A000BF93EF93FF9388E690E20E949E09809188
:1028B0006020811117C065E588E790E20E94FA0860
:1028C0008091622090916320892BF1F060916220C9
:1028D0007091632088E690E20E94090981E080936C
:1028E000602023C08091662090916720892B31F071
:1028F00080916620909167206ADF2CDF80916420B0
:1029000090916520892B39F488E690E20E94D108E5
:10291000109261200AC0609164207091652088E661
:1029200090E20E94090910926020FF91EF91BF91FF
:10293000AF919F918F917F916F915F914F913F9157
:102940002F910F900FBE0F901F9018959C0161154D
:10295000710511F0892B49F41092642010926520C2
:10296000109262201092632008959FE1929FA0012F
:10297000939F500D11244093642050936520969F9F
:102980009001979F300D1124209362203093632093
:1029900080916120811119C061E070E088E690E2C9
:1029A0000E94B809809166209091672010DF6091A5
:1029B00064207091652088E690E20E94090988E60B
:1029C00090E20E94C2081092602081E08093612012
:1029D000089541E066E080E496E00E94150541E03C
:1029E00067E080E496E00E94150526E040E456E0AA
:1029F00060E078E088E790E20E94AA0826E040E4E0
:102A000056E060E478E088E690E20E94B60863E071
:102A100088E790E20E94DD088CE08093020865E57B
:102A200088E790E20E94EC0860E188E690E20C946E
:102A30004D094F925F926F927F928F929F92AF92C9
:102A4000BF92CF92DF92EF92FF921F93CF93DF93CB
:102A5000142FD52F9B01AC010E9416296B017C011C
:102A60000E94962A2B013C0120E030E040EA51E42C
:102A70000E9416294B015C0120E030E04CE152E459
:102A80000E946E2B181674F0A3019201C701B601C3
:102A90000E9415296B017C01C501B4010E94EB293C
:102AA000C62F07C0C7E2C12CD12C80E8E82E8FE3E7
:102AB000F82E20E030E0A901C501B4010E947A2976
:102AC00087FF04C0C0E0C12CD12C760120E030E0AB
:102AD00040E251E4C701B6010E94722B0E94212CF2
:102AE0006B017C01E12FFD2FEC0FF11DEC0FF11DAF
:102AF000C081D181628173816C1B7D0B072E000C1C
:102B0000880B990B0E941D2A4B015C0120E030E0EC
:102B100040E251E4C701B6010E947E299B01AC014D
:102B2000C501B4010E94722B6B017C01BE01DD0F57
:102B3000880B990B0E941D2A9B01AC01C701B601AD
:102B40000E9416290E94E629CB01DF91CF911F91A7
:102B5000FF90EF90DF90CF90BF90AF909F908F90BD
:102B60007F906F905F904F900895CF92DF92EF9299
:102B7000FF920F931F93CF93DF9380911B208823A5
:102B8000D9F088E690E20E94D10810926420109259
:102B90006520109262201092632010926120809133
:102BA000D1219091D221DF91CF911F910F91FF9070
:102BB000EF90DF90CF902ECE809192208823A1F0CD
:102BC0008091192090911A20009771F001978093BD
:102BD000192090931A20DF91CF911F910F91FF90B0
:102BE000EF90DF90CF900895C090D521D090D6215E
:102BF000E090D721F090D8212091892030918A202F
:102C000040918B2050918C20C701B6010E946E2B01
:102C100087FF0EC020918D2030918E2040918F2013
:102C200050919020C701B6010E947A2918169CF095
:102C300042ED50E2C701B601FCDE8C0146E751E2ED
:102C4000C701B601F6DEEC0144E251E2C701B6016C
:102C5000F0DE7C0106C0E12CF12CC0E0D0E000E009
:102C600010E0C801D7DDB701CE01DF91CF911F91F0
:102C70000F91FF90EF90DF90CF9068CEAF92BF9210
:102C8000CF92DF92EF92FF920F931F93CF93DF9338
:102C9000CDB7DEB7A097CDBFDEBF80916A2381118B
:102CA00007C00EE513E09EE5C92E93E0D92E2EC095
:102CB00082EC92E09F938F930E94AD2F0F900F9024
:102CC00088EF92E20E94540A8823D1F3EACFB6013A
:102CD000601B710BCB01805090407C0160537D4F95
:102CE000A501CE0101960E944B2F8091CF0187FD57
:102CF000FCCFA501B701CE0101960E94E931A8954C
:102D0000005211090E3F9FEF190741F0580101329F
:102D10001105E8F280E2A82EB12CD9CF8091CF0125
:102D200087FDFCCF61E089E790E00E94620DA096EC
:102D3000CDBFDEBFDF91CF911F910F91FF90EF903C
:102D4000DF90CF90BF90AF900895CF92DF92EF9237
:102D5000FF928091CF0187FDFCCF41E350E060E01E
:102D600070E081E990E20E943232809191208F3FA1
:102D700009F484DF809191208150843018F084E040
:102D80008093912080919220823010F010929220B6
:102D9000809193209091942081319E4030F08CE27C
:102DA00091E08093932090939420809195208B3094
:102DB00010F01092952080919620833010F01092A0
:102DC0009620E1E9F0E280E090E020E030E046810A
:102DD000578144525A4F493B5B4010F0868397839A
:102DE0004089518944525A4F493B5B4010F0208B37
:102DF000318B3296225331090A968233910539F785
:102E0000C090AB20D090AC20E090AD20F090AE20F0
:102E100020E030E0A901C701B6010E947A2987FDB0
:102E20000AC020E030E040E251E4C701B6010E9450
:102E30006E2B181664F48FE692E1A3E8BAE3809350
:102E4000AB209093AC20A093AD20B093AE20C09067
:102E5000AF20D090B020E090B120F090B22020E0E0
:102E600030E0A901C701B6010E947A2987FD0AC096
:102E700020E030E040E251E4C701B6010E946E2B31
:102E8000181664F480E090E0A0ECB0E48093AF20EA
:102E90009093B020A093B120B093B220C090B32003
:102EA000D090B420E090B520F090B62020E030E043
:102EB000A901C701B6010E947A2987FD0AC020E056
:102EC00030E048EC52E4C701B6010E946E2B1816A0
:102ED00064F480E090E0A0EFB1E48093B32090939D
:102EE000B420A093B520B093B6208091B7208C5029
:102EF000873218F089E18093B720209196208FE0E7
:102F000091E0289FB001299F700D11246F5C7F4FC5
:102F10004FE051E082EC90E20E943232E2ECF0E2CB
:102F200024E131E284E690E040895189413D5740F7
:102F300010F0808B918BDF01AE59BF4F4D915C91AA
:102F40001197413D574010F08D939C93DF01AC5495
:102F5000BF4F4D915C911197413D574010F08D93BB
:102F60009C9332962E173F07F9F68091C821863040
:102F700018F081E08093C8218091C921863018F033
:102F800081E08093C9218091CA21823018F081E0CC
:102F90008093CA218FD88091CC0182608093CC012C
:102FA000FF90EF90DF90CF9008958091CF0187FD43
:102FB000FCCF6091912080E090E0C6D08091CC0160
:102FC00082608093CC0108958091CF0187FDFCCF72
:102FD000409196202FE031E0429FC001439F900D29
:102FE00011246091C821895C9E4FAED08091CC01A4
:102FF00082608093CC0108958091CF0187FDFCCF42
:10300000409196202FE031E0429FC001439F900DF8
:1030100011246091C921885C9E4F96D08091CC018B
:1030200082608093CC0108958091CF0187FDFCCF11
:103030006091962085E090E087D0209196208FE0E7
:1030400091E0289FB001299F700D11246F5C7F4F84
:103050004FE051E082EC90E20E943232E2ECF0E28A
:1030600084E690E020893189213D374010F0808B43
:10307000918BDF01AE59BF4F2D913C911197213DAE
:10308000374010F08D939C93DF01AC54BF4F2D91CE
:103090003C911197213D374010F08D939C933296CF
:1030A00021E2E431F207F1F68091C821863018F070
:1030B00081E08093C8218091C921863018F081E099
:1030C0008093C9218091CA21823018F081E08093D9
:1030D000CA2108951F920F920FB60F9211248F9359
:1030E0009F938091D3219091D42101968093D321F5
:1030F0009093D4219F918F910F900FBE0F901F90AE
:10310000189561E080E00E946F0781E00C94B3079E
:103110000F931F930E94DB07AC016091D321709144
:10312000D421CB01A0E0B0E0DC019927882760E042
:1031300070E08C019D01042B152B262B372BC90128
:10314000B8011F910F9108950F931F93CF93DF93B1
:103150001F92CDB7DEB78C0169838091CF0187FDC7
:10316000FCCFC8010E9435329091CF0197FDFCCF72
:103170009981891739F041E050E0B801CE010196FC
:103180000E94E9310F90DF91CF911F910F91089527
:103190000F931F93CF93DF9300D0CDB7DEB78C0191
:1031A00069837A838091CF0187FDFCCFC8010E949B
:1031B0003D322091CF0127FDFCCF29813A81821732
:1031C000930739F042E050E0B801CE0101960E9429
:1031D000E9310F900F90DF91CF911F910F910895DA
:1031E0004F925F926F927F928F929F92AF92BF9217
:1031F000CF92DF92EF92FF92CF93DF9300D000D077
:10320000CDB7DEB769837A838B839C832091F121CC
:103210003091F2214091F3215091F4216091AB2043
:103220007091AC208091AD209091AE200E94162923
:103230006B017C012091AF203091B0204091B120F2
:103240005091B2200E9416299B01AC01C701B60122
:103250000E947E294B015C016093ED217093EE2169
:103260008093EF219093F0214090E9215090EA2142
:103270006090EB217090EC21A301920169817A8129
:103280008B819C810E941529A50194010E94722BBB
:10329000A30192010E9416292B013C016093E921B0
:1032A0007093EA218093EB219093EC21A501940186
:1032B00060E070E080E89FE30E941529A701960175
:1032C0000E94722B6093F1217093F2218093F3217D
:1032D0009093F421C301B2012496CDBFDEBFDF91EC
:1032E000CF91FF90EF90DF90CF90BF90AF909F90E5
:1032F0008F907F906F905F904F9008958091B32052
:103300009091B420A091B520B091B6208093F12186
:103310009093F221A093F321B093F42108952F927A
:103320003F924F925F926F927F928F929F92AF9255
:10333000BF92CF92DF92EF92FF920F931F93CF93A2
:10334000DF93C0905E23D0905F23E0906023F090E5
:103350006123C092E521D092E621E092E721F0922C
:10336000E821A7019601C701B6010E94412C8111F5
:10337000B3C0C701B60134DF6B017C016093D92172
:103380007093DA218093DB219093DC219B01AC01C7
:103390000E94412C8111A0C060915A2370915B233F
:1033A00080915C2390915D230E941D2A6093DD2112
:1033B0007093DE218093DF219093E02140912020C3
:1033C0005091212060912220709123209701860145
:1033D00085E393E21CD52B013C016093E1217093BE
:1033E000E2218093E3219093E4212090F521312C78
:1033F000C091B720D0E0C1018C0F9D1FBE010E947B
:103400007E308C01000F111F000F111FF801EA50D0
:10341000FE4D2081318142815381C301B2010E945E
:1034200015296B017C0184E690E0BE010E947E308C
:10343000072E000C880B990B0E941D2A9B01AC01E2
:10344000C701B6010E94722B6B017C016093D521EC
:103450007093D6218093D7219093D82120E030E03B
:10346000A9010E946E2B181624F0F7FAF094F7F8D1
:10347000F09480901C2090901D20A0901E20B09071
:103480001F2020E030E0A901C501B4010E946E2B8D
:10349000181624F0B7FAB094B7F8B094A5019401C7
:1034A000C701B6010E947A2987FF08C01092D52172
:1034B0001092D6211092D7211092D821F801EA500B
:1034C000FE4D4082518262827382C1010196BE012B
:1034D0000E947E308093F521DF91CF911F910F9153
:1034E000FF90EF90DF90CF90BF90AF909F908F9024
:1034F0007F906F905F904F903F902F9008951F9313
:10350000CF93DF93EC018AA19BA10E94B00542E01A
:103510006CA18AA19BA10E94B8058AA19BA10E94CF
:1035200030068AA19BA10E94B405182F8AA19BA1F5
:103530000E94B405212F30E0322F2227A901482B09
:10354000CA01DF91CF911F9108950F931F93CF93DD
:10355000DF93EC018AA19BA10E94B00543E06CA11E
:103560008AA19BA10E94B8058AA19BA10E94300656
:103570008AA19BA10E94B405182F8AA19BA10E9439
:10358000B405082F8AA19BA10E94B405682F702F53
:10359000812F90E0DF91CF911F910F910895CF93EC
:1035A000DF93EC0180916A23811113C040E06CA18C
:1035B0008AA19BA10E94B8058AA19BA10E94300606
:1035C0008AA19BA10E94200690916A23811110C0BC
:1035D00020C084E896E09F938F930E94AD2F0F90B8
:1035E0000F9088EF92E20E94540A8823D1F3DECF35
:1035F0009923F9F08DE796E09F938F930E94AD2F6A
:103600000F900F9088EF92E20E94540A8823D1F322
:1036100010C0992371F087E796E09F938F930E94E3
:10362000AD2F0F900F9088EF92E20E94540A8823EA
:10363000D1F3DF91CF910895CF93DF93EC0162EA4C
:103640005EDF888B998B64EACE0159DF8A8B9B8B76
:1036500066EACE0154DF8C8B9D8B68EACE014FDF8A
:103660008E8B9F8B6AEACE014ADF888F998F6CEA36
:10367000CE0145DF8A8F9B8F80916A23811105C01F
:1036800080916A23882321F10FC08EE596E09F93F5
:103690008F930E94AD2F0F900F9088EF92E20E94BF
:1036A000540A8823D1F3ECCF89898F9388898F932B
:1036B00086E596E09F938F930E94AD2F0F900F9019
:1036C0000F900F9088EF92E20E94540A8823D1F362
:1036D00080916A238823A1F08B898F938A898F93A5
:1036E0008EE496E09F938F930E94AD2F0F900F90E2
:1036F0000F900F9088EF92E20E94540A8823D1F332
:1037000080916A238823A1F08D898F938C898F9370
:1037100086E496E09F938F930E94AD2F0F900F90B9
:103720000F900F9088EF92E20E94540A8823D1F301
:1037300080916A238823A1F08F898F938E898F933C
:103740008EE396E09F938F930E94AD2F0F900F9082
:103750000F900F9088EF92E20E94540A8823D1F3D1
:1037600080916A238823A1F0898D8F93888D8F9310
:1037700086E396E09F938F930E94AD2F0F900F905A
:103780000F900F9088EF92E20E94540A8823D1F3A1
:1037900080916A238823A1F08B8D8F938A8D8F93DC
:1037A0008EE296E09F938F930E94AD2F0F900F9023
:1037B0000F900F9088EF92E20E94540A8823D1F371
:1037C000DF91CF910895CF93DF93EC018AA19BA164
:1037D0000E94B00540E06CA18AA19BA10E94B8059F
:1037E0008AA19BA1DF91CF910C9430066EE1EBCFC3
:1037F000CF93DF93EC016AA37BA34CA388E08C8F6B
:103800001D8ECE01F3DF2FEF80E792E02150804044
:103810009040E1F700C00000CE01DF91CF910CCFC6
:10382000FC01648D6064CFCFFC01658D6065CBCFFA
:10383000CF92DF92EF92FF92CF93DF93EC01C9A872
:10384000DAA8EBA8FCA860E080DE611571058105AF
:10385000910529F069AB7AAB8BAB9CAB04C0C9AACC
:10386000DAAAEBAAFCAADF91CF91FF90EF90DF904C
:10387000CF900895CF92DF92EF92FF92CF93DF9394
:10388000EC01CDA4DEA4EFA4F8A860E05EDE611533
:1038900071058105910529F06DA77EA78FA798ABCB
:1038A00004C0CDA6DEA6EFA6F8AADF91CF91FF90C7
:1038B000EF90DF90CF9008958F929F92AF92BF923A
:1038C000CF92DF92EF92FF920F93CF93DF93EC01B1
:1038D0004DA55EA56FA578A9411551056105710536
:1038E00009F44BC0888D998DA0E0B0E0BA2FA92FC4
:1038F000982F88279A01AB01281B390B4A0B5B0BC9
:103900002E8F3F8F48A359A36A8D7B8D80E090E076
:103910000E942331D22EE32EF42EB52FF62FE72F5F
:10392000B82EC92EA0E00E94DD3184F42150310967
:1039300040485F4F6F4F7F4F8F4F9F4FD22EE32EE8
:10394000F42EB52FF62FE72FB82EC92E2D2D3E2D94
:103950004F2D5B2F6F2F7E2F8B2D9C2D07E10E940B
:10396000A13149015A0180ED880E87E0981EA11C03
:10397000B11C8DA29EA2AFA2B8A6DF91CF910F91EC
:10398000FF90EF90DF90CF90BF90AF909F908F907F
:1039900008952F923F924F925F926F927F928F92F3
:1039A0009F92AF92BF92CF92DF92EF92FF920F93CE
:1039B0001F93CF93DF93CDB7DEB7AE97CDBFDEBFFA
:1039C00089879A87DC01D1962D913D914D915C912B
:1039D000D4972B873C874D875E87232B242B252B61
:1039E00009F4FFC15696ED91FC9157975E964D9064
:1039F0005D906D907C90919752968D909C9053978E
:103A0000940140E050E060E070E080E090E000E190
:103A10000E948831F22E132F1A014B018F87998350
:103A2000BF0180E090E0A30192010E942331D22ED9
:103A3000E32E042FB52FF62FE72FB82EC92EA0E0C6
:103A40000E94DD315CF4AFE70E94C831D22EE32E34
:103A5000042FB52FF62FE72FB82EC92E2D2D3E2D72
:103A6000402F5B2F6F2F7E2F8B2D9C2D07E00E9408
:103A7000A13159016A01E62EF72F082FE92F2F2DCA
:103A8000312FA101B4018F859981FF2E1E2F0E9435
:103A9000BF312B8B3C8B4D8B5E8B6F8B788F898FDF
:103AA0009A8FE985FA850088F189E02DE983FA8308
:103AB000A985BA8554966D917C91559780E090E0E8
:103AC000A30192010E942331F22E032F142FB52F50
:103AD000F62FE72FD82EE92EA0E00E94DD3184F4E6
:103AE00021503F4F4F4F5F4F6F4F7F4F8F4F9F4F33
:103AF000F22E032F142FB52FF62FE72FD82EE92EF5
:103B00002F2D302F412F5B2F6F2F7E2F8D2D9E2D30
:103B100008E00E94A13119014A01B62FA72FF82F02
:103B2000E92F29813A81C12CD12CA60160E070E0F7
:103B300080E090E00FE00E94883159016A017B012A
:103B40008C019101A4016B2F7A2F8F2F9E2F0E9441
:103B5000BF312B8F3C8F4D8F5E8F6F8F78A389A3E2
:103B60009AA3A985BA8595968D919D910D90BC914A
:103B7000A02D8F87988BA98BBA8B803D9740A1058C
:103B8000B1050CF0D3C0C301B201A30192010E94A0
:103B900023310FE10E94A33129833A834B835C8355
:103BA0006D837E838F8398876F85788989899A89C9
:103BB000605D7740810991099B01AC010E944F3003
:103BC00025E030E040E050E00E942331F22E132F38
:103BD0004CA75BA7B62FA72FF82FE92F01E00E9473
:103BE000A3312BA33CA34DA35EA36FA378A789A702
:103BF0009AA72F2D312F4CA55BA56B2F7A2F8F2FD6
:103C00009E2F02E00E94A3312BA73CA74A016EA77A
:103C10007DA71C012F85388949895A8924328AEF6A
:103C200038078FEF48075807ECF5CA01B90164520D
:103C30007A4F8F4F9F4F9B01AC010E944F302B0159
:103C40003C0127E030E040E050E00E942331ABA08F
:103C5000BCA0CDA0DEA0EFA0F8A409A51AA50E94E3
:103C6000BF312BA33CA34DA35EA36FA378A789A765
:103C70009AA7C301B2012BE030E040E050E00E947F
:103C8000233101E00E94A331ABA4BCA46401EEA4E3
:103C9000FDA481010E94BF312BA73CA74A016EA75A
:103CA0007DA71C018F859889A989BA8929813A81C4
:103CB0004B815C81821B930BA40BB50BE985FA85C4
:103CC00085A396A3A7A3B0A72B893C894D895E89BC
:103CD0006F89788D898D9A8DABA0BCA0CDA0DEA018
:103CE000EFA0F8A409A51AA50E94D4312B8B3C8B18
:103CF0004D8B5E8B6F8B788F898F9A8F2B8D3C8D40
:103D00004D8D5E8D6F8D78A189A19AA1ABA4BCA4C5
:103D10006401EEA4FDA481010E94D4312B8F3C8F5D
:103D20004D8F5E8F6F8F78A389A39AA34B845C8499
:103D30006D847E84770C4408542C3201AB8CBC8C8F
:103D4000CD8CDE8CEF8CF8A009A11AA12B853C85C7
:103D50004D855E85642D742D842D942D0E94D23066
:103D6000F22E032F142FB52FF62FE72FD82EE92E82
:103D7000A0E00E94DD3184F421503109404E5F4FB4
:103D80006F4F7F4F8F4F9F4FF22E032F142FB52F62
:103D9000F62FE72FD82EE92E2F2D302F412F5B2F16
:103DA0006F2F7E2F8D2D9E2D05E10E94A131AB88B6
:103DB000BC88CD88DE88EF88F88C098D1A8D0E942A
:103DC000D4310E94172A20E030E040E058E30E94FE
:103DD000722BA985BA8599966D937D938D939C934B
:103DE0009C97AE96CDBFDEBFDF91CF911F910F9113
:103DF000FF90EF90DF90CF90BF90AF909F908F900B
:103E00007F906F905F904F903F902F900895CF924A
:103E1000DF92EF92FF920F931F936A017B01C9011A
:103E2000B801A70196010E947E292EEA3CED42E4EA
:103E30005EE30E94D52B9B01AC0160E070E080E85E
:103E40009FE30E94152920E03AE24DE257E40E94E8
:103E5000722B1F910F91FF90EF90DF90CF900895FC
:103E6000682F88EF92E20E946C0C80E090E0089549
:103E70008F92AF92CF92DF92EF92FF920F93809149
:103E80002420909125208093722390937323809116
:103E90006A23882379F141E067E080E696E00E949A
:103EA000220541E067E080E696E00E94ED048DE4A3
:103EB0008093740080E4882E90E4A92EC12C22EC1B
:103EC000D22EEE24E394F12C01E023E040E656E00C
:103ED00060EC79E088EF92E20E94950A62E088EF58
:103EE00092E20F91FF90EF90DF90CF90AF908F9084
:103EF0000C94600A0F91FF90EF90DF90CF90AF90FD
:103F00008F900895CF92DF92EF92FF920F931F93BD
:103F1000CF93DF93C82F062F7A016AEA88EF92E2E7
:103F20000E946C0CD1E0D00F6D2F88EF92E20E94BE
:103F30006C0C4D2F65ED80E00E94710DD82F6C2F19
:103F400088EF92E20E946C0C4C2F65ED8D2F0E9441
:103F5000710D182FE7016701C00ED11CCC15DD05CE
:103F600071F07E01699188EF92E20E946C0CF7017A
:103F7000408165ED812F0E94710D182FEFCF612FC9
:103F800088EF92E2DF91CF911F910F91FF90EF9018
:103F9000DF90CF900C946C0CCF93DF93CDB7DEB74E
:103FA0006097CDBFDEBF8091CB228983482F50E040
:103FB0004131510588F5FA01EC58FF4F0C94B330AC
:103FC0008091912023C0909193208091942045C0AE
:103FD000809196201BC08091922018C08091B820BB
:103FE00015C0EBEFE80FF0E0EE0FFF1FE956FF4DB5
:103FF00032C0E6EFE80FF0E0EE0FFF1FEF55FF4D88
:104000002AC08091C82102C08091C9218A83AE0153
:104010004F5F5F4F62E027C0843838F1ECE7E80F6C
:10402000E93230F4F0E0EE0FFF1FEE52FF4D13C007
:10403000E23540F4E3E5E80FF0E0EE0FFF1FEC5D42
:10404000FE4D09C0EB3789F0EAE2E80FF0E0EE0F31
:10405000FF1FEA58FE4D908181819A838B83AE01C8
:104060004F5F5F4F63E083E04DDF6096CDBFDEBF03
:10407000DF91CF9108958091CB22482F50E04131BC
:10408000510508F0A4C0FA01EB57FF4F6091CC2214
:104090000C94B330609391208091CF0187FDFCCFC9
:1040A00080E090E091C07091CD2260939320709356
:1040B00094208091CF0187FDFCCF82E090E0DAC0B0
:1040C0006093962080916A23882391F01F926F93CA
:1040D00084ED96E09F938F930E94AD2F0F900F90E9
:1040E0000F900F9088EF92E20E94540A8823D1F338
:1040F0008091CF0187FDFCCF6091962085E090E014
:1041000023D80E941418B8C0609392208091CF01E8
:1041100087FDFCCF81E090E057C081E0611101C0D4
:1041200080E08093B8209091CF0197FDFCCF682F5D
:1041300087E290E049C07091CD22855090E00396CF
:10414000FC01EE0FFF1FEF56FF4D6083718320913E
:10415000CF0127FDFCCF10C07091CD228A5090E096
:104160000896FC01EE0FFF1FEF56FF4D6083718331
:104170002091CF0127FDFCCF880F991F80509040E0
:1041800079C06093C8218091CF0187FDFCCF409119
:1041900096202FE031E0429FC001439F900D1124F3
:1041A000895C9E4F11C06093C9218091CF0187FD2A
:1041B000FCCF409196202FE031E0429FC001439F09
:1041C000900D1124885C9E4F0E94A41855C084381D
:1041D00008F457C09CE7980F993298F46091CC226C
:1041E0007091CD22892F90E00896FC01EE0FFF1F01
:1041F000EE53FF4D608371832091CF0127FDFCCFEB
:104200002AC0923598F46091CC227091CD228D5ABB
:1042100090E0C196FC01EE0FFF1FEE53FF4D60834F
:1042200071832091CF0127FDFCCF15C09B3749F149
:104230006091CC227091CD22865D90E0865A9F4F8E
:10424000FC01EE0FFF1FEE53FF4D60837183209141
:10425000CF0127FDFCCF880F991FE09196204FE0FA
:1042600051E0E49F9001E59F300D1124820F931FD0
:104270008F5C9F4F0E94C81840E050E060E084E0EF
:1042800041CE08951F93CF93DF93CDB7DEB76097EC
:10429000CDBFDEBF1091CA2280916A23811105C073
:1042A0008091C2228823A1F015C01F921F938AEC2F
:1042B00096E09F938F930E94AD2F0F900F900F90D9
:1042C0000F9088EF92E20E94540A8823D1F3E8CF3E
:1042D00011117BC0A8950E949510143009F43EC0BE
:1042E00050F4113081F198F0133009F06EC0109342
:1042F0004C2052DE6AC01630C9F1A8F11E3F09F009
:1043000064C061E089E790E00E94620D5EC081E0D8
:104310008093C22285E193E20E94D10880E090E080
:104320000E940A1410921B2084E080934C2064ECBD
:1043300076E0CE0101960E94542FAE014F5F5F4F91
:1043400066E080E041C084E080934C2040E050E093
:1043500060E081E0D7DD0E94EC1037C083E08093FD
:104360004C2089DE32C00E943E162FC083E080932D
:104370004C208091CB228F3F49F49091CC229F37E3
:1043800029F480E090E00E940A141AC0682F70910E
:10439000CC22072E000C880B990B0E941D2A20E0CE
:1043A00030E048EC52E4AAD76093D5217093D6212F
:1043B0008093D7219093D82110921B200E94B5158D
:1043C00040E050E060E086E09DDD6096CDBFDEBF5E
:1043D000DF91CF911F9108950F931F93CF93C82F13
:1043E0000E9488180091C6221091C7222091C822ED
:1043F0003091C922DC01CB01801B910BA20BB30BC6
:10440000893C9105A105B10510F01092DA220E94B5
:1044100088186093C6227093C7228093C822909315
:10442000C9228091DA22813051F028F08230E9F0FF
:104430008330A9F13AC0CA3AC1F581E02DC08FEFAF
:104440008C0F803118F01092DA222FC082E0809316
:10445000DA22C093C4221092C5224C2F65ED80E071
:104460000E94710D8093C32220C04C2F65ED809176
:10447000C3220E94710D8093C3228091C522E82F30
:10448000F0E0E653FD4DC0838F5F8093C52290918D
:10449000C42289130AC083E08093DA2206C0809187
:1044A000C322C813D0CFEEDECECFCF911F910F9194
:1044B0000895FC0180E09191992311F08927FBCFA9
:1044C00008950F931F93CF93DF93CDB7DEB7C355F6
:1044D000D109CDBFDEBF80916A23882309F477C05C
:1044E00088EF92E20E945A0A811106C088EF92E298
:1044F0000E94910C71DFF4CF0E9488180091BE22B7
:104500001091BF222091C0223091C12206171707B7
:104510002807390708F05BC08091C222811157C07B
:1045200020E030E040E251E46091DD217091DE2135
:104530008091DF219091E021E1D69F938F937F932B
:104540006F9320E030E048EC52E46091D521709107
:10455000D6218091D7219091D8210E94722B9F93D0
:104560008F937F936F938091DC218F938091DB21D8
:104570008F938091DA218F938091D9218F9380EA54
:1045800096E09F938F938E010F5F1F4F1F930F93A2
:104590000E94D12FC8018DDF1F928F931F930F931D
:1045A00085E996E09F938F930E94AD2F0E94881813
:1045B000DC01CB01C296A11DB11D8093BE22909358
:1045C000BF22A093C022B093C122CDBFDEBFCD5A7F
:1045D000DF4FCDBFDEBFDF91CF911F910F910895C7
:1045E00088EF92E20E94E1098BED92E20C94E109DE
:1045F0008BED92E20E94E20988EF92E20C94E209CC
:10460000E0E7F0E083E8808387E081838CE18383C7
:104610008DE58483E0ECF1E0848582608487E0E0CE
:10462000F6E083898760838B0895E0E7F0E087E810
:10463000808387E081838FE58383848341E061E029
:1046400080EE97E00E94220540E061E080EE97E076
:104650000E94ED0485E193E20E94D10888E790E290
:104660000E94D10888E690E20E94D10840E064E010
:1046700080E096E00E94220541E061E080E096E063
:104680000E94ED0441E060E080E096E00E94ED04CD
:10469000E0ECF1E08485826084870895CF92EF9208
:1046A0000F931F9364E080E696E00E94FA0491E085
:1046B000813009F090E090936A2382E00E945304D5
:1046C00080E20E94590D0E94A5169ADF0E946A0D91
:1046D00060E180E696E00E9455056FE080E496E098
:1046E0000E945505C5DB41E061E080EE97E00E9445
:1046F000220541E061E080EE97E00E94ED042FEF9B
:1047000081EE94E0215080409040E1F700C000002D
:1047100088E0C82E98E0E92E00EC17E229E030E0AE
:1047200040E060E874E085E293E20E945E050E944A
:1047300081180E94C30D0E94810E0E94E9140E94FC
:104740007E1947E765E273E285E393E251D885E39A
:1047500093E20E94CF1A25E040E656E060E479E05B
:1047600085E193E20E94B60862EE74E085E193E28F
:104770000E94090944E650E061E085E193E20E946D
:10478000160961E185E193E20E944D0985E193E21A
:104790001F910F91EF90CF900C94C2081F920F922F
:1047A0000FB60F9211242F933F934F935F936F9304
:1047B0007F938F939F93AF93BF93EF93FF9385E185
:1047C00093E20E949E09A89585E393E231D885E3A0
:1047D00093E22AD885E393E26FD885E393E2D9D8B0
:1047E000FF91EF91BF91AF919F918F917F916F91C9
:1047F0005F914F913F912F910F900FBE0F901F909F
:1048000018951F920F920FB60F9211242F933F937A
:104810004F935F936F937F938F939F93AF93BF93C8
:10482000EF93FF9385E393E225D885E393E20E941B
:10483000101C80916B23853118F00E948F1903C0E2
:104840008F5F80936B230E94B5150E9491110E9487
:10485000D00DFF91EF91BF91AF919F918F917F917B
:104860006F915F914F913F912F910F900FBE0F90DD
:104870001F90189513DF80916A23811105C08091E4
:104880006A23882321F10FC08DE497E09F938F93D3
:104890000E94AD2F0F900F9088EF92E20E94540A71
:1048A0008823D1F3ECCF809178001F928F938CE313
:1048B00097E09F938F930E94AD2F0F900F900F90D2
:1048C0000F9088EF92E20E94540A8823D1F38091DE
:1048D000780085FF12C080916A23882371F082E3FB
:1048E00097E09F938F930E94AD2F0F900F9088EFCA
:1048F00092E20E94540A8823D1F38091780084FFC9
:1049000012C080916A23882371F08DE297E09F9313
:104910008F930E94AD2F0F900F9088EF92E20E942C
:10492000540A8823D1F38091780083FF12C08091CC
:104930006A23882371F088E297E09F938F930E9407
:10494000AD2F0F900F9088EF92E20E94540A8823B7
:10495000D1F38091780082FF12C080916A2388236E
:1049600071F083E297E09F938F930E94AD2F0F9099
:104970000F9088EF92E20E94540A8823D1F380912D
:10498000780081FF12C080916A23882371F089E149
:1049900097E09F938F930E94AD2F0F900F9088EF19
:1049A00092E20E94540A8823D1F38091780080FF1C
:1049B00012C080916A23882371F08FE097E09F9363
:1049C0008F930E94AD2F0F900F9088EF92E20E947C
:1049D000540A8823D1F38FE38093780080916A236F
:1049E0008823F1F08091AE208F938091AD208F933A
:1049F0008091AC208F938091AB208F938FEF96E0C6
:104A00009F938F930E94AD2F0F900F900F900F9058
:104A10000F900F9088EF92E20E94540A8823D1F3FE
:104A200080916A238823F1F08091B2208F93809146
:104A3000B1208F938091B0208F938091AF208F937E
:104A40008FEE96E09F938F930E94AD2F0F900F9063
:104A50000F900F900F900F9088EF92E20E94540AEF
:104A60008823D1F380916A238823F1F08091B620C6
:104A70008F938091B5208F938091B4208F938091F4
:104A8000B3208F938FED96E09F938F930E94AD2F6D
:104A90000F900F900F900F900F900F9088EF92E271
:104AA0000E94540A8823D1F31FEF07C062E080E020
:104AB00096E00E94FA048823E9F0809188208823F8
:104AC00041F1B3DD81E00E94CC070E945E0D22E03F
:104AD00041E062E080E096E00E944D050E943908C6
:104AE00010930C0640E062E080E096E00E942F0503
:104AF000C0E0DCCFCF5F8FEA96E30197F1F700C00B
:104B00000000C43699F661E089E790E00E94620DEA
:104B1000D4CFC0916A23D0E064E080E696E00E94A2
:104B2000FA0421E030E0813011F020E030E0C217DB
:104B3000D30729F061E089E790E00E94620D80913F
:104B40006B23853108F0BDDC0E943208B6CF85E2C8
:104B500093E20C945805A0E1B0E0E1EBF5E20C948F
:104B600057317C011B016A01FC0116821782838187
:104B700081FF34C39E012F5F3F4F3901F7019381BD
:104B8000F10193FD859193FF81911F01882309F421
:104B900021C3853239F493FD859193FF81911F01E3
:104BA000853239F4B70190E00E94712F56016501FA
:104BB000E5CF10E0512C912CFFE1F915D8F08B32A4
:104BC00079F038F4803279F08332A1F4F92DF06174
:104BD0002EC08D3261F0803369F4292D21602DC003
:104BE000392D3260932E892D8460982E2AC0E92DAC
:104BF000E86015C097FC2DC020ED280F2A3088F4FE
:104C000096FE06C03AE0139F200D1124122F19C002
:104C10008AE0589E200D1124522EE92DE0629E2E2E
:104C200010C08E3231F496FCD5C2F92DF0649F2E5F
:104C300008C08C3621F4292D2068922E02C08836B7
:104C400041F4F10193FD859193FF81911F01811141
:104C5000B3CF9BEB980F933020F4992D9061805E39
:104C600007C09BE9980F933008F062C1992D9F7E91
:104C700096FF16E09F73992E853619F49064992E4D
:104C800008C0863621F4392F3068932E02C01111E6
:104C9000115097FE07C01C3350F444244394410E36
:104CA00027E00BC0183038F027E017E005C027E0F8
:104CB0009CE3492E02C0212F412C560184E0A80E0E
:104CC000B11CF6016081718182819381042DA30161
:104CD0000E94732E6C01F981FC87F0FF02C0F3FF84
:104CE00006C091FC06C092FE06C000E205C00DE2BF
:104CF00003C00BE201C000E08C858C7019F001113B
:104D00004BC288C297FE10C04C0CFC85F4FF04C057
:104D10008A81813309F44A94141474F528E0241527
:104D200078F588E0482E2CC096FC2AC0812F90E0B0
:104D30008C159D059CF03CEFC3163FEFD30674F035
:104D4000892D8068982E0AC0E2E0F0E0EC0FFD1F8C
:104D5000E10FF11D8081803319F411501111F4CF4E
:104D600097FE0EC044244394410E812F90E0C81654
:104D7000D9062CF41C1904C04424439401C010E04B
:104D800097FE06C01C141D0434F4C601019605C02C
:104D900085E090E002C081E090E0011101961123CE
:104DA00031F0212F30E02F5F3F4F820F931F252DD1
:104DB00030E08217930714F4581A01C0512C892D42
:104DC000897049F4552039F0B70180E290E00E94E3
:104DD000712F5A94F7CF002329F0B701802F90E06C
:104DE0000E94712F93FC09C0552039F0B70180E370
:104DF00090E00E94712F5A94F7CF97FE4CC0460165
:104E0000D7FE02C0812C912CC60188199909F301A3
:104E1000E80FF91FED87FE879601241931092F87C6
:104E2000388B012F10E01195019511093FEF831682
:104E3000930629F4B7018EE290E00E94712FC81406
:104E4000D9044CF08F8598898815990524F4ED854F
:104E5000FE85818101C080E3F1E08F1A91082D85E4
:104E60003E852F5F3F4F2D873E87801691062CF0A1
:104E7000B70190E00E94712FD9CFC814D90441F432
:104E80009A81963320F4953319F43C8534FF81E3FD
:104E9000B70190E04BC08A81813319F09C859F7ED9
:104EA0009C87B70190E00E94712F111105C094FCFE
:104EB00018C085E690E017C0B7018EE290E00E942E
:104EC000712F1E5F82E001E0080FF301E80FF11D72
:104ED0008081B70190E00E94712F802F0113F3CFE2
:104EE000E6CF85E490E0B701FCD7D7FC06C0C1143B
:104EF000D10441F4EC85E4FF05C0D194C194D108FC
:104F00008DE201C08BE2B70190E0EBD780E32AE0AD
:104F1000C216D1042CF08F5FFAE0CF1AD108F7CF78
:104F2000B70190E0DED7B701C601C096DAD749C114
:104F3000833631F0833779F0833509F052C01FC0D2
:104F4000560132E0A30EB11CF6018081898301E095
:104F500010E0630111C05601F2E0AF0EB11CF60182
:104F6000C080D18096FE03C0612F70E002C06FEF59
:104F70007FEFC601ABD78C01F92DFF7713C0560127
:104F800022E0A20EB11CF601C080D18096FE03C0C3
:104F9000612F70E002C06FEF7FEFC6018CD78C01EC
:104FA000F92DF0689F2EF3FD18C0852D90E00817AD
:104FB000190798F4B70180E290E093D75A94F5CF9F
:104FC000F60197FC859197FE81916F01B70190E002
:104FD00088D751105A94015011090115110581F714
:104FE000F0C0843611F0893659F5560197FE09C094
:104FF00024E0A20EB11CF60160817181828193814F
:105000000AC0F2E0AF0EB11CF60160817181072E7B
:10501000000C880B990BF92DFF769F2E97FF09C086
:1050200090958095709561957F4F8F4F9F4FF06859
:105030009F2E2AE030E0A301D4D7C82EC6183EC068
:10504000092D853721F40F7E2AE030E01DC0097F4D
:105050008F3691F018F4883559F0BCC0803719F0BC
:10506000883711F0B7C0006104FF09C0046007C0B1
:1050700094FE08C0066006C028E030E005C020E1CC
:1050800030E002C020E132E0560107FF09C084E0B1
:10509000A80EB11CF601608171818281938108C0E4
:1050A000F2E0AF0EB11CF6016081718180E090E00A
:1050B000A30197D7C82EC6180F77902E96FE0BC067
:1050C000092D0E7FC11650F494FE0AC092FC08C050
:1050D000092D0E7E05C0DC2C092D03C0DC2C01C07F
:1050E000D12E04FF0DC0FE01EC0DF11D8081803337
:1050F00011F4097E09C002FF06C0D394D39404C002
:10510000802F867809F0D39403FD10C000FF06C0FD
:105110001C2DD51478F4150D1D190CC0D51450F4A0
:10512000B70180E290E0DDD6D394F8CFD51410F427
:105130005D1801C0512C04FF0FC0B70180E390E05F
:10514000D0D602FF16C001FD03C088E790E002C080
:1051500088E590E0B7010CC0802F867851F001FF00
:1051600002C08BE201C080E207FD8DE2B70190E052
:10517000B8D6C11630F4B70180E390E0B2D6115032
:10518000F8CFCA94F301EC0DF11D8081B70190E0D6
:10519000A8D6C110F6CF15C0F4E0F51550F584E09F
:1051A000581A93FE1EC0011125C02C8523FF27C06D
:1051B0000EEA11E0392D3071932EF801849181119E
:1051C00021C0552009F4F3CCB70180E290E089D6E4
:1051D0005A94F7CFF7018681978123C08FEF9FEF15
:1051E00020C0B70180E290E07CD65A945110F9CFEC
:1051F000DACF512CB701802F90E073D6D6CF02EBD7
:1052000011E0D8CF91108052B70190E06AD60F5FBD
:105210001F4FD3CF23E0251510F483E0C1CF512CCD
:10522000C4CF6096E2E10C9470315058BB27AA2796
:105230000ED003C2F4D130F0F9D120F031F49F3F09
:1052400011F41EF4D9C10EF4E095E7FBA6C1E92FD5
:1052500005D280F3BA17620773078407950718F021
:1052600071F49EF534C20EF4E0950B2EBA2FA02DEA
:105270000B01B90190010C01CA01A0011124FF2703
:10528000591B99F0593F50F4503E68F11A16F040FE
:10529000A22F232F342F4427585FF3CF46953795FD
:1052A0002795A795F0405395C9F77EF41F16BA0BC2
:1052B000620B730B840BBAF09150A1F0FF0FBB1F70
:1052C000661F771F881FC2F70EC0BA0F621F731FB9
:1052D000841F48F4879577956795B795F7959E3F16
:1052E00008F0B3CF9395880F08F09927EE0F9795A4
:1052F000879508952ED108F481E008950CD09DC1C2
:1053000095D140F08CD130F021F45F3F19F045C1C8
:105310005111DEC171C1A2D198F39923C9F355236C
:10532000B1F3951B550BBB27AA2762177307840798
:1053300038F09F5F5F4F220F331F441FAA1FA9F34E
:1053400033D00E2E3AF0E0E830D091505040E69540
:10535000001CCAF729D0FE2F27D0660F771F881FA1
:10536000BB1F261737074807AB07B0E809F0BB0B90
:10537000802DBF01FF2793585F4F2AF09E3F5105B4
:1053800068F00BC1A5C15F3FECF3983EDCF3869556
:1053900077956795B795F7959F5FC9F7880F911D2A
:1053A0009695879597F90895E1E0660F771F881F16
:1053B000BB1F621773078407BA0720F0621B730BC9
:1053C000840BBA0BEE1F88F7E095089504D068941B
:1053D000B1117EC108954AD188F09F5790F0B92F3E
:1053E0009927B751A0F0D1F0660F771F881F991F3A
:1053F0001AF0BA95C9F712C0B13081F068D1B1E0A6
:10540000089565C1672F782F8827B85F39F0B93FB5
:10541000CCF3869577956795B395D9F73EF490953B
:105420008095709561957F4F8F4F9F4F089597FBA3
:105430000EF4E5D03EC0E89409C097FB3EF4909589
:105440008095709561957F4F8F4F9F4F9923A9F05D
:10545000F92F96E9BB279395F695879577956795EC
:10546000B795F111F8CFFAF4BB0F11F460FF1BC030
:105470006F5F7F4F8F4F9F4F16C0882311F096E9C3
:1054800011C0772321F09EE8872F762F05C0662371
:1054900071F096E8862F70E060E02AF09A95660F2A
:1054A000771F881FDAF7880F9695879597F90895E3
:1054B000E894F92F96EBFF2381F0121613061406D9
:1054C000440B9395F695879577956795579540404A
:1054D000FF23B9F71BC099270895882351F49850EA
:1054E000D2F7872B762F652F542F432F322F20E0B2
:1054F000B1F3121613061406440B88233AF09A955A
:10550000440F551F661F771F881FCAF755234AF49B
:10551000440F551F11F460FF04C06F5F7F4F8F4F22
:105520009F4F880F9695879597F90895B9D080F089
:105530009F3740F491110EF0CBC060E070E080E83E
:105540009FEB089526F41B16611D711D811D2BC054
:1055500045C0990F0008550FAA0BE0E8FEEF16169C
:105560001706E807F907C0F012161306E407F50757
:1055700098F0621B730B840B950B39F40A2661F0CB
:10558000232B242B252B21F408950A2609F4A1406E
:10559000A6958FEF811D811D089597F99F6780E87B
:1055A00070E060E00895882371F4772321F098502B
:1055B000872B762F07C0662311F499270DC09051D1
:1055C000862B70E060E02AF09A95660F771F881F9F
:1055D000DAF7880F9695879597F908959F3F31F0F0
:1055E000915020F4879577956795B795880F911D11
:1055F0009695879597F908959FEF80EC089590957B
:1056000080957095609550954095309521953F4FC8
:105610004F4F5F4F6F4F7F4F8F4F9F4F0895002425
:105620000A941616170618060906089500240A9407
:1056300012161306140605060895092E0394000C8D
:1056400011F4882352F0BB0F40F4BF2B11F460FF1C
:1056500004C06F5F7F4F8F4F9F4F089557FD905845
:10566000440F551F59F05F3F71F04795880F97FB26
:10567000991F61F09F3F79F08795089512161306E0
:105680001406551FF2CF4695F1DF08C0161617060F
:105690001806991FF1CF8695710561050894089544
:1056A000E5DFA0F0BEE7B91788F4BB279F3860F4A8
:1056B0001616B11D672F782F8827985FF7CF86952C
:1056C00077956795B11D93959639C8F30895E89439
:1056D000BB2766277727CB0197F908953ADF08F4AF
:1056E0008FEF08950BD0A9CF9ADF28F09FDF18F035
:1056F000952309F052CF80CF1124EACFAFDFA0F37A
:10570000959FD1F3950F50E0551F629FF001729F56
:10571000BB27F00DB11D639FAA27F00DB11DAA1F75
:10572000649F6627B00DA11D661F829F2227B00DC2
:10573000A11D621F739FB00DA11D621F839FA00D4D
:10574000611D221F749F3327A00D611D231F849F9D
:10575000600D211D822F762F6A2F11249F575040F4
:105760008AF0E1F088234AF0EE0FFF1FBB1F661F8F
:10577000771F881F91505040A9F79E3F510570F048
:105780000CCFA6CF5F3FECF3983EDCF38695779580
:105790006795B795F795E7959F5FC1F7FE2B880F43
:1057A000911D9695879597F90895FA01EE0FFF1FC1
:1057B00030962105310599F16115710561F4803844
:1057C000BFE39B0749F168949038810561F0803808
:1057D000BFEF9B0741F0992342F5FF3FE1053105FB
:1057E000210511F1E8940894E795D901AA2329F439
:1057F000AB2FBE2FF85FD0F310C0FF5F70F4A695FB
:10580000E0F7F73950F019F0FF3A38F49F779F939B
:105810000CD00F9007FC905808953EF0EDCE60E05C
:1058200070E080E89FE308954FE79F775F934F9381
:105830003F932F93C2D02F913F914F915F9152DFB1
:1058400029C014DFE0F09E37D8F09639B8F49E38BE
:1058500048F4672F782F8827985FF9CF869577953A
:10586000679593959539D0F3B62FB1706B0F711D75
:10587000811D20F4879577956795939594CEAECE4C
:1058800027CF67DE880B990B089519F40EF085CEAB
:105890001ECFB2CEEBDEC8F39638C0F707F80F92F2
:1058A000E8942BE33AEA48EB5FE72ADF0F920F9286
:1058B0000F924DB75EB70F92C0D0ECE2F1E016D078
:1058C0004F915F91EF91FF91E595EE1FFF1F49F01A
:1058D000FE57E0684427EE0F441FFA95E1F7419523
:1058E000550B32D00F9007FE26C00895DF93CF935B
:1058F0001F930F93FF92EF92DF927B018C016894CC
:1059000005C0DA2EEF01FADEFE01E894A59125919B
:10591000359145915591AEF3EF0199DCFE01970168
:10592000A801DA9479F7DF90EF90FF900F911F9123
:10593000CF91DF9108959B01AC0160E070E080E8B9
:105940009FE3DCCC2ACE4ACE91DEE8F39923D9F34B
:10595000940F511DBBF39150504094F059F088239F
:1059600032F0660F771F881F91505040C1F79E3F5D
:10597000510544F7880F911D9695879597F90895DD
:105980005F3FACF0983E9CF0BB2786957795679576
:10599000B79508F4B1609395C1F7BB0F58F711F4B0
:1059A00060FFE8CF6F5F7F4F8F4F9F4FE3CF90CE69
:1059B0000EF014CE21CE6894F0CD58DEC8F39923B2
:1059C000D1F3C6F3DF93CF931F930F93FF92C92FA9
:1059D000DD2788232AF02197660F771F881FDAF7C3
:1059E00020E030E040E85FEB9FE3883920F0803E24
:1059F00030F021968F771ADCE4E5F1E003C016DC85
:105A0000E1E8F1E073DF8B01BE01EC01FB2E6F5783
:105A100071097595771F880B990B0FDD28E132E727
:105A200041E35FE36BDEAF2D9801AE01FF900F9174
:105A30001F91CF91DF910BDC00CEFA01DC01AA0FA0
:105A4000BB1F9B01AC01BF5728F4222733274427F3
:105A500050781FC0B75188F4AB2F00244695379576
:105A60002795011CA395D2F3002069F0220F331F64
:105A7000441FB395DAF30DD0D8CB61307105A0E89F
:105A80008A07B94630F49B01AC016627772788273F
:105A90009078309621F02083318342835383089598
:105AA0000F931F93CF93DF938230910510F482E020
:105AB00090E0E0916E23F0916F2320E030E0A0E0D1
:105AC000B0E0309719F1408151810281138148176C
:105AD0005907C8F08417950769F4109731F01296AA
